:020000040800F2
:100000000000052081D40108CDD40108A102000818
:10001000CDD4010829D10108CDD401080000000089
:100020000000000000000000000000009DCF01085B
:10003000CDD40108000000002DCF0108F114010803
:10004000CDD40108CDD40108CDD40108CDD4010808
:10005000CDD40108CDD40108CDD40108CDD40108F8
:10006000CDD40108CDD40108CDD40108CDD40108E8
:10007000CDD40108CDD40108CDD40108CDD40108D8
:10008000CDD40108CDD40108CDD40108CDD40108C8
:10009000CDD40108CDD40108CDD40108CDD40108B8
:1000A000CDD40108CDD40108CDD40108CDD40108A8
:1000B000CDD40108CDD40108CDD40108CDD4010898
:1000C000CDD40108CDD40108CDD40108CDD4010888
:1000D000CDD40108CDD40108CDD40108CDD4010878
:1000E000CDD40108CDD40108CDD40108CDD4010868
:1000F000CDD40108CDD40108CDD40108CDD4010858
:10010000CDD40108CDD40108CDD40108CDD4010847
:10011000CDD40108CDD40108CDD40108CDD4010837
:10012000CDD40108CDD40108CDD40108CDD4010827
:10013000CDD40108CDD40108CDD40108CDD4010817
:10014000CDD40108CDD40108CDD40108CDD4010807
:10015000CDD40108CDD40108CDD40108CDD40108F7
:10016000CDD40108CDD40108CDD40108CDD40108E7
:10017000CDD40108CDD40108CDD401080000000081
:10018000CDD40108CDD40108CDD40108CDD40108C7
:10019000CDD40108CDD40108CDD40108CDD40108B7
:1001A000CDD40108CDD40108CDD40108CDD40108A7
:1001B000CDD40108CDD40108CDD40108CDD4010897
:1001C000CDD40108CDD4010810B5054C237833B93E
:1001D000044B13B10448AFF300800123237010BD1A
:1001E000E017002000000000C4740208084B10B59E
:1001F0001BB108480849AFF300800848036803B9F9
:1002000010BD074B002BFBD0BDE81040184700BFC6
:1002100000000000C4740208E4170020D01700207A
:1002200000000000154B002B08BF134B9D46A3F5A3
:10023000803A00218B460F461348144A121A20F0C8
:1002400071F80F4B002B00D098470E4B002B00D0BD
:1002500098470020002104000D000D48002802D01E
:100260000C48AFF3008020F00DF8200029001DF0AD
:10027000BDFB1FF06BFE00BF000008000000052062
:100280000000000000000000E0170020901A00208D
:10029000000000000000000000000000000000005E
:1002A00000F022F810F0FF0F06D0FFE700F023F86F
:1002B00010F0FF0F02D108E0FFE7FEE7064807490C
:1002C0007944405800F01EF8FFE705480549794495
:1002D000405800F017F87047F05102E81015001868
:1002E000EC5102E80215001880B51CF003FF01284C
:1002F00018BF002080BD80B51CF00AFF00F002008E
:10030000400880BD80B582B00146054A054B7B445C
:100310001A44906701911CF05DFE02B080BDC0469A
:100320003CFEFFFFC214001880B582B006F00AFC44
:1003300006F03AFC09480A4979440844019106F05C
:1003400045FC06F04DFC06F06BFC06F075FC05481C
:100350000199084406F07CFC02B080BDEC0101E884
:1003600098140018ACEAFFFF7047704780B582B060
:10037000002000900849094A7A441144C96B019051
:1003800001A8083804F048FA019800906846083837
:1003900009F082FB02B080BDACEAFFFF58140018E0
:1003A00080B58CB02549264A7A4411444A6A896A44
:1003B000002A07900692059124D0FFE70698C169AC
:1003C000079A1368CB6004911CF026FD0021099167
:1003D00009AA083A03901046039A0291114603F0C5
:1003E000BCF809980A9002980B900A9928390B904A
:1003F0000BAAA2F1080000F061FA0B99049803F02F
:1004000023FDFFE70598C1698A68089208AAA2F14E
:100410000800019103F0B0F81CF008FD0198C068D5
:1004200005F0B6FB059805F077FA064806497944C9
:1004300008440599C0F8F8100CB080BDACEAFFFF85
:10044000281400183CFEFFFFA213001880B584B0EA
:10045000002002900B490C4A7A44895801900846C2
:10046000FFF750FF0198039003A9A1F1080001993B
:1004700004F0D2F90398029002A8083809F00CFBA6
:1004800004B080BDD05402E87813001880B58AB05B
:100490000346002809930892079112D1FFE7FFE76E
:1004A0001D482049794408441D4A1144069000F033
:1004B00087F9059000F0D1F90698059900F0D6F972
:1004C000EEE70798002812D1FFE7FFE7124813492B
:1004D00079440844124A1144049000F071F90390E1
:1004E00000F0BBF90498039900F0C0F9EEE7099811
:1004F00000F01AF807990290084600F015F86946CE
:10050000089A0A600999019008460299079A019B86
:1005100000F040F80AB080BD38EAFFFF0013001871
:100520009C0401E82C13001880B586B00146083001
:10053000049000200590049A083A059005A8083810
:100540000391114600F0BAF90598406800690D4919
:100550000D4A7A441144029000F080FB002803D039
:10056000FFE7002001900AE0084809497944014466
:10057000029800F01FFD406BC0680190FFE70198F2
:1005800006B080BD6C0601E87E1200181C0701E869
:1005900064120018B0B598B0DDF870C09E460C46E5
:1005A0000D46B1F1FF3F1395CDF848E0119310943B
:1005B000CDF83CC00E920D9012DCFFE7FFE75348E8
:1005C000584979440844554A11440C9000F0F8F811
:1005D0000B9000F0EFF90C980B9900F047F9EEE75B
:1005E00011980028EADBFFE70F980028E6DBFFE719
:1005F00013980F9942180D9BD3F808C0624512DD7D
:10060000FFE7FFE74148464979440844434A11441B
:100610000A9000F0D5F8099000F0CCF90A980999F1
:1006200000F024F9EEE711980F9942180E9BD3F8C9
:1006300008C0624512DDFFE7FFE7344836497944D8
:100640000844364A1144089000F0BAF8079000F0C8
:10065000B1F90898079900F009F9EEE70D9800F153
:100660000801149100211591149A083A159115ABBF
:10067000A3F108000691114600F020F91598406892
:100680000E9901F108021692069A1792169BA3F191
:100690000801179217AB083B0590184600F00EF9B9
:1006A000179840680599814212D0FFE7FFE7174885
:1006B000174979440844174A1144049000F080F81F
:1006C000039000F065F90498039900F0CFF8EEE785
:1006D0000D98139900F0FAF801460E9A0290104610
:1006E000119B0191194600F0F1F80146029A8242ED
:1006F000009109D0FFE70598C1680F9A4A43019815
:10070000009900F009F9FFE718B0B0BD38EAFFFF23
:100710001E1100182C0501E892110018BC0501E813
:10072000C81100180E12001880B586B0014600F1FD
:100730000802049200220592049B083B059205AA38
:10074000083A039010460291194600F0B7F8059850
:100750004068C0698069039901900846019A9047F2
:1007600006B080BD82B00A4603464FF0000C8842B6
:1007700008BF4FF0010C60460193009202B0704731
:1007800080B582B00146019101F0FCF902B080BD54
:1007900080B582B001468268C068074BDFF81CC094
:1007A000FC4463440190104600911946019A02F0FE
:1007B000A7FC02B080BDC0467C2C01E830100018B8
:1007C00010B58CB0084689680490084608F05EFDB4
:1007D0000146039108F062FD0590FFE705A8059921
:1007E000089100210991089A039B1A44099109A9CB
:1007F000083902900846114600F060F805980A9002
:1008000009980B900A99401A0190084601991FF027
:100810001EFBFFE705980499416008220260002052
:1008200006900790029A137892F801C092F802E0BD
:10083000D4784EEA042E43EA0C2343EA0E4306938F
:100840000790069B03F10801079007A8083800F0FD
:1008500035F8079808380CB010BD80B582B0014655
:1008600001910AF0DCFC02B080BDC04680B584B0C6
:1008700008460E4A0E4B7B441A44039010460291E0
:100880000192009307F0B6FE0A480099084407F069
:10089000B1FE019807F0AEFE074800994058FFF7F7
:1008A00031FD029808F05AFB04B080BD8C2301E8AA
:1008B0005A0F00182C2401E8105302E882B00A46AF
:1008C000034681600193009202B0704780B586B004
:1008D0000A460346083004904FF0000CCDF814C0CF
:1008E000DDF810E0AEF1080ECDF814C00DF1140CD7
:1008F000ACF1080C0390604602917146019200939E
:10090000FFF7DCFF05984068C0680299039A01FB75
:100910000020043006B080BD80B584B013464FF08F
:10092000000CB2F1FF3FC8BF4FF0010CBCF1000F4B
:1009300003900293019107D1FFE7104810497944D1
:100940004058FFF7DFFCFFE703980199884206D97A
:10095000FFE701980399029A1FF07CFA0CE00398D4
:1009600002994218019B9342F3D2FFE70198039941
:10097000029A1FF071FAFFE704B080BDB45302E899
:10098000920E001881B001468068009101B0704756
:1009900080B582B00146054A054B7B441A4401915B
:1009A00011460AF04CFC02B080BDC046AC2D01E8F7
:1009B000360E001880B582B0014601910AF037FC6E
:1009C00002B080BD80B586B00146144A144B7B440A
:1009D0001A44DFF850C09C440590104604916146CB
:1009E0000393FFF7EDFE1049039A114402900DF0B6
:1009F0001DFC0E480399425C00230598029900F003
:100A0000DDF80B480399014402980CF0F7F90299BC
:100A10000190084601F036FF06B080BD38EAFFFFBE
:100A2000020E00183C0B01E84C3E01E8575402E866
:100A30004C3A01E810B588B00A46034600F1080CAC
:100A4000CDF818C04FF0000CCDF81CC0DDF818E050
:100A5000AEF1080ECDF81CC007AC083C059020464E
:100A6000049171460393CDF808C00192FFF726FF69
:100A700007984068C0698069059900900846049904
:100A8000029A009B984708B010BD80B586B0014619
:100A9000C06A00F10802049200220592049B083B00
:100AA000059205AA083A0390104602911946FFF7ED
:100AB00005FF05984068C0694069039901900846A0
:100AC000019A904706B080BD80B584B00B46DFF830
:100AD0004CC0DFF84CE0FE44F44403900846614605
:100AE0000293019200F029FD002810D0FFE70B4887
:100AF0000C4979440144029805F02EFC0399CA6A16
:100B0000C16A1046019A0EF055FA009002E00020EA
:100B10000090FFE7009804B080BDC0464C1801E883
:100B2000FA0C0018DE0C001881B00146C06A009172
:100B300001B0704781B00146009101B0704780B5A7
:100B400086B00146C06A00F10802049200220592B4
:100B5000049B083B059205AA083A039010460291AF
:100B60001946FFF7ABFE05984068C069406A0399D3
:100B700001900846019A904706B080BD80B586B0C6
:100B80000146C06A00F10802049200220592049B0B
:100B9000083B059205AA083A0390104602911946AF
:100BA000FFF78CFE05984068C069806A0399019040
:100BB0000846019A904706B080BDC046F0B58DB09A
:100BC0009C4696460C460546C06A00F108060B9600
:100BD00000260C960B9F083F0C960CAE083E0A9020
:100BE0003046099139460893079206940595CDF849
:100BF00010C0CDF80CE0FFF761FE0C984068C069AA
:100C0000C06A0A99029008460999079A089BDDF87C
:100C100008C0E047044805497944014409980CF0AC
:100C2000EDF801900DB0F0BDAC3E01E8B80B001836
:100C300080B582B00846074A074B7B441A440190AE
:100C40000846114600F00AF8002818BF012002B03B
:100C500080BDC0466C0601E8960B001880B586B0D2
:100C6000024600280392029115D0FFE7039800F195
:100C70000801049100210591049A083A059105A9FB
:100C8000A1F108001146FFF719FE05984068029986
:100C9000884206D108E003980190FFE7019806B06A
:100CA00080BD00200190F9E7F5E7C04680B586B029
:100CB0000146144A144B7B441A44DFF850C09C444C
:100CC00005901046049161460393FFF779FD1049A2
:100CD000039A114402900DF0A9FA0E480399425C60
:100CE00000230598029900F071F80B48039901441C
:100CF00002980CF083F802990190084601F0C2FDB9
:100D000006B080BD38EAFFFF1A0B00183C0B01E863
:100D10003C3D01E8555402E84C3A01E880B582B008
:100D20000A4603464FF0000C01926246009300F021
:100D30000BF802B080BD80B582B001460191FFF78B
:100D4000A4FE02B080BDC04680B586B00B46DFF879
:100D500070C0DFF870E0FE44F44405900846614638
:100D600004930392FFF77AFF00280FD0FFE714489F
:100D7000154979440144049800F01CF90146059A8C
:100D8000136B006B8342029106D00FE000200190AC
:100D9000FFE7019806B080BD0598406B0299496B4A
:100DA0000EF05EF810F0FF0F01D107E0EEE70598B6
:100DB0000499039AFFF788FE0190EAE7F6E7C04638
:100DC0001C0701E87A0A00185E0A00182DE9F041B4
:100DD0009EB09C4696460C460546C06A00F1080641
:100DE000149600261596149F083F15960DF1540889
:100DF000A8F10808139040461291394611931092B9
:100E00000F960E95CDF834C0CDF830E00B94FFF777
:100E100055FD15984068C069C06A13990A90084644
:100E20001299109A119BDDF828C0E0473D483E49D1
:100E30007944014412980BF0E1FF0F990990089151
:100E4000FFE70898C1170E9A136B4FF0000C9842F9
:100E5000634628BF0123B1F1FF3F6146C8BF0121AE
:100E6000BCEBE07F08BF19460029079004D1FFE7DB
:100E7000079800280BD113E02C482D4979440144F0
:100E80000B980BF0BBFF06901EB0BDE8F08129481F
:100E90002949794401440B980BF0B0FF0590FFE716
:100EA0000E98416B8968079A8A4211DAFFE70E981B
:100EB000416B079A01EBC201CB6809691693179140
:100EC000DDF858C0BCF1000F0493039104D120E079
:100ED0000798411C0891B4E704981A9003991B9154
:100EE0001A990B980DF076FC1449154A7A4411446E
:100EF0000B9A029010460BF081FF04991C91039A03
:100F00001D920B9B0190184611460DF063FC00905A
:100F100006E004981890039919910029DCD1FFE7A5
:100F2000D6E7C0469C3D01E8A0090018BC3D01E899
:100F3000540900188C3601E83E090018DC3D01E830
:100F4000E408001880B584B00A46184BDFF860C08A
:100F5000FC4463440390084619460292FFF77EFE64
:100F6000014600220191114600F0D3FD10F0FF0F61
:100F700007D1FFE70398016B019A136B994206D0E2
:100F80000FE000200090FFE7009804B080BD0398B8
:100F9000406B0199496B0DF063FF10F0FF0F01D119
:100FA00003E0EEE701200090EEE7FAE71C0701E816
:100FB0008008001880B586B002460028059204918A
:100FC00003D1FFE70598039009E005980499FFF71E
:100FD00045FE01460028029115D1FFE702E0039883
:100FE00006B080BD09480A4979440844094A1144B9
:100FF0000190FFF7E5FB009007F046FF019800998C
:10100000FFF734FCEEE702980390E8E738EAFFFFC9
:10101000E80700185C2301E880B582B001468268C9
:1010200001911146FFF752FC02B080BD82B00A4622
:10103000034681600193009202B0704780B584B08E
:101040000A46134BDFF84CC0FC4463440390084647
:1010500019460292FFF702FE002803D1FFE70020A5
:10106000019012E00398017A094A0B4B7B441A4421
:10107000029800911146FFF79DFF007A0021009A27
:10108000824208BF01210191FFE7019804B080BDB1
:10109000AC0701E8880700186407001880B582B023
:1010A0000146019100F018FD00F02BFD02B080BD5B
:1010B00081B00146007A009101B0704780B584B0DC
:1010C0000146007A0391029000F010F80549064AA3
:1010D0007A44895A029A01901046019A00F03EF82B
:1010E00004B080BDF45102E80007001880B586B056
:1010F0001548164979440844D0F8E400017F0029D6
:10110000059006D1FFE7059801690029049116D1E1
:1011100018E00F480F4979440844059A0390104697
:10112000039B029119460DF0FBFB0B49029A1144F7
:10113000FFF740FF0190FFE7019806B080BD0498DB
:101140000190F9E7E5E7C0463CFEFFFFDC0600182A
:10115000203601E8BA060018FC3501E870B588B001
:1011600013468C468646104C104D7D442C44104E40
:101170002E4407902046069131460592CDF810E0A6
:1011800003950293CDF804C0FFF71AFB009007996E
:101190000AF0B0F807480399425800980699059B51
:1011A0000AF0B2FA08B070BD38EAFFFF6606001810
:1011B0005C2E01E8C85302E880B586B00A460346B3
:1011C000007A0591049303920290FFF78FFF029932
:1011D000019008460599019A00F002F806B080BD1A
:1011E00080B58AB00B4684464FF0000ECDF824E05F
:1011F0000DF1240E089008467146CDF81CC00693E8
:1012000005920AF0BBF981B2024659290492039073
:1012100005D3FFE7039881B2642905D04AE003981B
:1012200081B2442908D1FFE7059882690999089895
:101230000BF0FAFA02903AE0039881B2472904D100
:10124000FFE7099800280FDCEEE7039881B25829E0
:1012500009D1FFE7049881B22139099A08980BF067
:1012600097FA029023E0FFE71748184979440844A9
:10127000174A1144FFF7A4FA0146089A0191114652
:101280000AF038F84FF6FF700499014207D1FFE7E2
:1012900001980699059A0AF009FC029007E0099A5C
:1012A00001980499059B0AF02FFA0290FFE7029833
:1012B0000AB080BD039881B26729C2D0FFE70398C6
:1012C00081B27829C6D0CEE738EAFFFF640500185E
:1012D0005C2E01E881B00146008940EA004000919F
:1012E00001B0704780B584B00A46134BDFF84CC09C
:1012F000FC4463440390084619460292FFF7AEFC93
:10130000002803D1FFE70020019012E00398018933
:10131000094A0B4B7B441A44029800911146FFF78F
:1013200049FE00890021009A824208BF01210191F3
:10133000FFE7019804B080BD3C0801E8E004001814
:10134000BC04001880B582B001460089019100F00C
:1013500003F802B080BDC04680B584B001460A4A99
:101360000A4B7B44D258039010460293019100F03F
:1013700011F80749029A8A580090039900F028F85A
:10138000009804B080BDC046F85102E86E04001811
:10139000FC5102E880B584B001460A4A0A4B7B44FE
:1013A0001A44039200F1010CDFF820E0734402902C
:1013B000184601911146624601F0C7F80299C160D2
:1013C00004B080BD3C0201E83204001838EAFFFF97
:1013D00080B588B013469446B2F1FF3FCDF81CC0EB
:1013E00006930591049003DCFFE701F06FF905E037
:1013F0000498C168079A8A42F7DCFFE7049800F175
:101400001001079A03920291FFE7029803990139AC
:101410000A4600290190009208DBFFE70198059930
:1014200020F8021B009A03920290EEE708B080BDFC
:1014300080B586B00A4600290590049208D0FFE7DF
:101440000598049900F036F810F0FF0F06D1FFE779
:1014500000200390FFE7039806B080BD13481449AD
:1014600079440144049800F068F80146029100F0C4
:101470009AF810F0FF0F03D0FFE700200390EAE78F
:1014800005988168029A9368994203D0FFE700208B
:10149000019008E00598C0680299C96800F0ACF8AE
:1014A000C0B20190FFE701980390D4E7CC0801E8AF
:1014B0007003001880B58AB00A46034608300690CB
:1014C00000200790DDF818C0ACF1080C07900DF172
:1014D0001C0EAEF1080E0590704604916146039211
:1014E0000293FFF7EBF907984068049901F10802AD
:1014F0000892059A0992089BA3F10801099209AB89
:10150000083B01901846FFF7D9F9099840680199FE
:101510008142059808BF01200AB080BD80B582B025
:1015200001460430019100F078F802B080BD81B02E
:1015300001468068009101B0704780B588B00246CE
:1015400000280592049116D0FFE7059800F10801E4
:10155000069100210791069A083A079107A9A1F17F
:1015600008001146FFF7AAF90798406804998142DC
:10157000039006D008E005980290FFE7029808B0B3
:1015800080BD0120019005E00498039904F01CFC43
:101590000190FFE7019810F0FF0F03D1FFE7002053
:1015A0000290EBE7E7E780B586B00146002803919B
:1015B00003D1FFE7012002901BE0039800F108012E
:1015C000049100210591049A083A059105ABA3F115
:1015D000080001911146FFF771F905984068C0694C
:1015E00000690399009008460199009A904702907B
:1015F000FFE7029806B080BD84B00A460346029019
:10160000039102984FF0000C884208BF4FF0010C84
:1016100060460192009304B0704781B00146806833
:10162000009101B0704780B583B013468C46864662
:101630008160C260CDF808C0CDF804E0009303B02B
:1016400080BD80B582B00146019100F002F802B081
:1016500080BD80B582B001460191FFF71FFD02B049
:1016600080BDC04680B586B00A46B1F1FF3F059007
:10167000049212DCFFE7FFE7154816497944084455
:10168000154A11440390FFF79BF80290FFF792F977
:1016900003980299FFF7EAF8EEE70598C168049A03
:1016A0008A42E8DAFFE7059800F1080100280A46B7
:1016B0000191009205D0FFE7019800F10801009127
:1016C000FFE70098049930F8110006B080BDC046CD
:1016D00038EAFFFF54010018BC0501E880B588B066
:1016E0000B464FF0000CCDF81CC00DF11C0C069001
:1016F000084661460593049209F040FF81B2024614
:1017000059290392029005D3FFE7029881B2642918
:1017100005D048E0029881B2442906D1FFE7079935
:1017200006980BF01DF901903AE0029881B2472922
:1017300004D1FFE7079800280FDCF0E7029881B298
:10174000582909D1FFE7039881B22139079A0698F1
:101750000BF01EF8019023E0FFE718481849794480
:101760000844184A1144FFF72BF80146069A0091E5
:10177000114609F081FE4FF6FF700399014207D12F
:10178000FFE700980599049A0AF090F9019007E0A4
:10179000079A00980399049B09F0B6FF0190FFE7B0
:1017A000019808B080BD029881B26729C2D0FFE7D6
:1017B000029881B27829C6D0CEE7C04638EAFFFF4A
:1017C000720000185C2E01E880B584B00A46104B08
:1017D000DFF840C0FC446344039008461946029277
:1017E000FFF73CFA002803D1FFE7002001900CE04E
:1017F00007480949794401440298FFF7DBFB8168F7
:10180000039800F00BF80190FFE7019804B080BD49
:101810005C0901E8FCFFFF17DCFFFF1782B00A46F6
:10182000034680684FF0000C884208BF4FF0010C5F
:1018300060460192009302B0704781B00146806813
:10184000009101B07047C04680B584B00146806801
:1018500003910290FFF74AFC0549064A7A44895AE7
:10186000029A01901046019AFFF778FC04B080BDFF
:10187000005202E874FFFF1780B584B0014680680B
:1018800003910290FFF732FC0549064A7A44895ACF
:10189000029A01901046019AFFF760FC04B080BDE7
:1018A000025202E844FFFF1780B586B00A4603469D
:1018B00080680591049303920290FFF717FC029948
:1018C000019008460599019AFFF78AFC06B080BD91
:1018D00080B584B00A4600290390029208D0FFE741
:1018E00003980299FFF7E6FD10F0FF0F06D1FFE71E
:1018F00000200190FFE7019804B080BD1248134911
:10190000794401440298FFF718FE01460091FFF761
:101910004AFE10F0FF0F03D0FFE700200190EAE736
:10192000039800690099096900F07FF810F0FF0F33
:1019300003D1FFE700200190DDE703980099FFF74E
:1019400077FD0190D7E7C046EC0901E8D0FEFF170C
:1019500010B58EB00146006900280A91099007D1A0
:10196000FFE70A98FFF7DAFD0B900BA8089042E01A
:101970000020014607910690FFE706980799099A0B
:101980009368994203460590049103932EDAFFE78A
:101990000998049900EB8102D268059B03EB431C74
:1019A00002F1080ECDF830E04FF0000ECDF834E033
:1019B0000C9CA4F10801CDF834E00DF1340EAEF129
:1019C0000800CDF808C00192FEF778FF0D98406836
:1019D000C0694069019900900846009A90470299B1
:1019E000084404994A1C07920690C6E703980BA97D
:1019F0000B900891FFE7089800680EB010BD82B008
:101A0000014600690028019103D1FFE70198009089
:101A100007E0019801698A6801EB820189680091F9
:101A2000FFE70098806802B0704780B588B0024632
:101A300000280792069104D0FFE707988168059176
:101A400002E000200590FFE7059806990029049020
:101A500004D0FFE706988168039102E0002003901C
:101A6000FFE703980499814203D1FFE70020029029
:101A700005E000200190FFE7019808B080BD0298C2
:101A80000499884200900FDAFFE70798009900EB6D
:101A90008102D068069A02EB8103D96800F039F818
:101AA00010F0FF0F03D005E001200190E4E70020D3
:101AB0000190E1E70098411C0291E0E780B584B015
:101AC00013468C4686460393CDF808C0CDF804E053
:101AD000FFF7A9FD04B080BD80B584B00146083091
:101AE000029000200390029A083A039003A8083855
:101AF00001911146FEF7E2FE03984068406904B088
:101B000080BD80B582B00146019100F09DF902B020
:101B100080BD80B588B00A4603468C46884205934E
:101B2000CDF810C0039203D1FFE7012002900AE034
:101B30000598002804D0FFE70498002806D1FFE7A5
:101B400000200290FFE7029808B080BD059800F1E0
:101B50000801069100210791069A083A079107A902
:101B6000A1F108001146FEF7A9FE07984068C06978
:101B700000690599019008460399019A90470290DF
:101B8000E1E7C04680B598B001460022119210925C
:101B90000F9208301290139212980838139213ABD8
:101BA000083B0E9018460E9B0D9119460C92FEF7BD
:101BB00085FE1398016801F440710A0A0C9BB3EB8F
:101BC000112F0B900A9205D0FFE70A98012800F028
:101BD000D4805DE00FA8099005F02EFC01460F901F
:101BE00069486A4A7A441044D0F8F80010900028F6
:101BF000089107D0FFE709984168096914AA149170
:101C0000079204E00220149014A80790FFE70798B9
:101C1000017842788378C07843EA002C41EA0221B7
:101C200041EA0C41DDF824C00CF8081F8CF80300D1
:101C30008CF802308CF801205CF8041C089805F040
:101C400019FC0B98017801F0FE010022042908BF5D
:101C50000122002A09D1FFE70B98016801F44071C5
:101C60000022B2EB112F5AD075E00998006809994B
:101C7000496805F051FC09984168002907D0FFE741
:101C80000998416882680969914241D1FFE7FFE7FD
:101C90000D98002818BF0120002807D1FFE73F4812
:101CA0003F4979444058FEF72DFBFFE70D9800F1BE
:101CB0000801159100211691159A083A169116A956
:101CC000A1F108001146FEF7F9FD1698016801F42C
:101CD00040710222B2EB112F069005D1FFE7069862
:101CE0000168890A059104E00D9805F04DFC059006
:101CF000FFE7059805F0CAFD049005F0E1FD17A87F
:101D0000049917910390FFE70398006818B080BD0D
:101D1000099840680999896801F0DEFDB7E71C4819
:101D20001C49794408444269531C43611A4841588C
:101D30000B98029202F0D2FD17A802991791099A06
:101D4000136851680190184605F0E6FB0998416850
:101D5000002901D107E088E709984168826809698C
:101D6000914203D1FFE701980390CDE709984068BD
:101D70000999896801F0B0FDF5E70B980168890AB7
:101D800017AA17910392BFE73CFEFFFFECFBFF177A
:101D9000FCEAFFFFAEFAFF17C45202E8C05202E8A5
:101DA0002EFBFF1781B001468068009101B070479B
:101DB00081B00146009101B0704780B582B0014604
:101DC00080680069019100F003F802B080BDC04650
:101DD00080B588B00146194A194B7B441A44DFF894
:101DE00064C063440590104604911946FEF7E8FC70
:101DF000039004F031FB059800F1080106910021E1
:101E00000791069A083A079107ABA3F108000291DF
:101E10001146FEF753FD07984068C069C06A0599EE
:101E2000019008460399029A029BDDF804C0E0473E
:101E3000039800F027FD08B080BDC04638EAFFFFD8
:101E4000F6F9FF173C0B01E880B582B001468068C7
:101E500000690191FFF7BCFF02B080BD80B599B069
:101E60000A460346C068C9688842189017931692BC
:101E700003D0FFE70020159062E0179800F10801F9
:101E800000280A461491139205D0FFE7149800F138
:101E900008011391FFE71398169901F10802002930
:101EA000134612901192109305D0FFE7119800F19C
:101EB00008011091FFE710981299189A0F900E924E
:101EC0000D91FFE70D980F990E9A082A03468C464C
:101ED00096460C900B910A920993CDF820C0CDF84C
:101EE0001CE00BDBFFE70C9801680B9A1368994222
:101EF0000A9909900892079132D0FFE7079808994C
:101F0000099A069105900492FFE704980699059AAC
:101F1000012A1346039002910192009309DBFFE727
:101F200003980168029A13689942019900910AD0B6
:101F3000FFE7009800210128B8BF01211591FFE7B4
:101F4000159819B080BD0398011D029A131DDDF884
:101F500004C0ACF1020E0693CDF814E00491D4E76E
:101F60000C9841680B9A536899420A990990089213
:101F70000791C3D1FFE70C9881680B9A9368994247
:101F80000A99099008920791B8D1FFE70C98C168A7
:101F90000B9AD36899420A99099008920791ADD19A
:101FA000FFE70C9800F110010B9A02F11003DDF825
:101FB00028C0ACF1080E0F93CDF838E00D9181E701
:101FC00080B584B00A46104BDFF840C0FC4463443F
:101FD0000390084619460292FEF740FE014600288B
:101FE000019104D1FFE70398002809D10BE0039881
:101FF0000199FFF733FF0090FFE7009804B080BD20
:1020000000200090F9E7F2E73C0201E804F8FF172E
:1020100080B584B00A460B460029039302920190D2
:1020200004D1FFE70198002809D10BE0019803993A
:10203000FFF714FF0090FFE7009804B080BD002078
:102040000090F9E7F2E780B586B00A4603468C4671
:102050008E468842CDF814C0CDF810E0039202936A
:1020600003D1FFE7012001900AE00298002804D084
:10207000FFE70598002806D1FFE700200190FFE761
:10208000019806B080BD02980499FFF7E7FE019021
:10209000F6E780B582B00A46034601920093FFF747
:1020A000D2FF02B080BDC04680B58CB00A46012385
:1020B000002B0B900A92099112D1FFE7FFE73248FB
:1020C000364979440844344A11440890FEF778FBB5
:1020D000079000F0BCF908980799FEF7C7FBEEE7F8
:1020E0000B98C1680029E9DBFFE70B98C168099AE2
:1020F000891A0029E2DBFFE70998B0F1FF3F12DC03
:10210000FFE7FFE72048234979440844224A114465
:102110000690FEF755FB059000F099F90698059991
:10212000FEF7A4FBEEE71848184979440844184A1A
:102130001144099A00F034F80999012902460490E3
:10214000039208DBFFE70B9800F11001049A002AC4
:10215000029103D107E003980CB080BD0498816818
:1021600000290BD1FFE700200190FFE701980299B9
:10217000099A00F067F804980390ECE7049800F1DE
:102180000C010191F2E7C04638EAFFFFA6F6FF17FF
:102190001C0301E8C8F6FF177C0A01E80EF7FF17D9
:1021A00080B58CB010460B46D1F808C0C9680490C1
:1021B0006046039307F0B8F80146029107F06EF805
:1021C0000590FFE705A80599089100210991089A53
:1021D000029B1A44099109A9083901900846114641
:1021E000FEF76CFB05980A9009980B900A99401A23
:1021F0000090084600991DF02AFEFFE70598039914
:1022000041600822026001980278437890F802C089
:1022100090F803E04CEA0E2C42EA032242EA0C4218
:10222000069200220792069B03F10801079207AA73
:10223000A2F10800FEF742FB0798049940F808193C
:102240000CB080BD80B5ADB013469446012ACDF8E0
:10225000B0C02B932A91299008DBFFE729982A998F
:1022600040EA010212F0030F02D008E02DB080BD59
:102270002C982A99299A28902791269285E02C98C3
:102280002A99299A259024912392FFE7239824994B
:10229000259A082A03468C46964622902191209240
:1022A0001F93CDF878C0CDF874E01FDBFFE72198CD
:1022B0000188229A11804188518081889180C1884B
:1022C000D180018911814189518181899181C1899F
:1022D000D18102F1100100F11003DDF880C0ACF1F2
:1022E000080E2493CDF894E02391CFE71D981E9912
:1022F0001F9A10F0040F0B4694461C901B911A92E3
:102300001993CDF860C011D0FFE71B9801881A9A85
:1023100011804188518081889180C188D18002F1EB
:10232000080100F1080319931891FFE7189819990B
:102330001C9A12F0020F0B468446179016911593C3
:10234000CDF850C00BD0FFE716980188179A11807E
:1023500041885180111D031D15931491FFE71498B6
:1023600015991C9A139112921190FFE711981399E5
:10237000129A12F0010F10900F9105D0FFE70F98FD
:102380000188109A1180FFE770E726982799289A0C
:10239000082A03468C4696460E900D910C920B939C
:1023A000CDF828C0CDF824E017DBFFE70D980168D1
:1023B0000E9A11604168516081689160C168D16076
:1023C00002F1100100F11003DDF830C0ACF1080E8D
:1023D0002793CDF8A0E02691D7E709980A990B9AA0
:1023E00010F0040F0B46944608900791069205934F
:1023F000CDF810C00DD0FFE707980168069A11606C
:102400004168516002F1080100F10803059304914D
:10241000FFE704980599089A12F0020F0B468446CC
:10242000039002910193CDF800C009D0FFE7029814
:1024300050F8041B039A42F8041B01900092FFE736
:1024400000980199089A1391129211908EE780B525
:1024500082B0014600220191114603F067FB02B0F1
:1024600080BD10B592B0014600F108020028104668
:10247000119210910F9005D0FFE7119800F108011B
:102480000F91FFE70F981099CA6841F20553C1F206
:1024900005539C460E93CDF834C00C920B90FFE789
:1024A0000B980E990D9A0C9B012B8C4696460A9020
:1024B000099108920793CDF818C0CDF814E014DB09
:1024C000FFE7099800EB401101EBE0610A9A1368FD
:1024D0005940079B032B8C46DDF820E00491CDF892
:1024E0000CC0CDF808E00FDB13E0059806990190C9
:1024F0000091FFE70098019948F66532C5F65852F9
:1025000001FB020012B010BD0298039901900091E6
:10251000F0E7089800EB401101EBE0610A9A53687C
:10252000594002F10803DDF81CC0ACF1040E049C14
:10253000CDF830E00E940D910B93B1E781B00146D8
:1025400080680138009101B0704780B58EB01046A8
:102550000B469446D1F808E0C96806907046CDF85D
:1025600014C0049306F0E0FE0146039106F096FEC7
:102570000790FFE707A807990A9100210B910A9A93
:10258000039B1A440B910BA9083902900846114687
:10259000FEF794F907980C900B980D900C99401A3F
:1025A0000190084601991DF052FCFFE70798049935
:1025B00041600822026002980278437890F802C0D5
:1025C00090F803E04CEA0E2C42EA032242EA0C4265
:1025D000089200220992089B03F10801099209AAB6
:1025E000A2F10800FEF76AF90998059940F8081960
:1025F0000EB080BD80B586B013468C468646D26844
:10260000C068401A8242CDF814E0CDF810C00392A1
:10261000029312DDFFE7FFE70F48104979440844B1
:102620000F4A11440190FEF7CBF80090FEF7C2F973
:1026300001980099FEF71AF9EEE70598049900EB66
:102640004102029B03F1100102F11000039AFFF70F
:10265000F9FD06B080BDC04638EAFFFFB4F1FF17B0
:10266000BC0501E880B584B09C46B3F1FF3F039000
:10267000CDF808C00192009103DCFFE700F026F8D6
:1026800012E00398C168029A8A42F7DCFFE70198DA
:102690000028F3DBFFE7019802994218009BD3F86A
:1026A00008C06245EADCFFE7029801280CDBFFE77F
:1026B000039810300099019A01EB420303F10C01D9
:1026C000029AFFF7BFFDFFE704B080BD80B582B07E
:1026D000FFE70848084979440844084A1144019032
:1026E000FEF76EF80090FEF765F901980099FEF785
:1026F000BDF8EEE738EAFFFFFAF0FF17BC0501E886
:1027000080B595B013461491139312921190FFE780
:1027100011981499129A082A03468C4696461090EE
:102720000F910E920D93CDF830C0CDF82CE017DB51
:10273000FFE70F980168109A116041685160816845
:102740009160C168D16002F1100100F11003DDF861
:1027500038C0ACF1080E1493CDF848E01191D7E7DA
:102760000B980C990D9A10F0040F0B4694460A90A2
:10277000099108920793CDF818C00DD0FFE709988A
:102780000168089A11604168516002F1080100F186
:10279000080307930691FFE7069807990A9A12F033
:1027A000020F0B468446059004910393CDF808C0B0
:1027B00009D0FFE7049850F8041B059A42F8041B5F
:1027C00003900292FFE7029803990A9A12F0010F10
:1027D0000190009105D0FFE700980188019A1180CF
:1027E000FFE715B080BD81B00146009101B0704790
:1027F00080B588B0024600280792069104D0FFE712
:102800000698002812D1FFE7FFE719481B497944D1
:1028100008441B4A11440590FDF7D2FF0490FEF7CF
:102820001CF805980499FEF721F8EEE70798C168AF
:10283000069A936801EBC3010D4BDFF838C0FC44E6
:1028400003EB0C000C4B634403911946FDF7B8FFF2
:102850000290039900F048F802980799069A00F050
:102860005FF802990190084600F00CF808B080BDAE
:1028700038EAFFFF92EFFF173C0B01E8C2EFFF17AA
:102880009C0401E880B584B0014682680069144B5D
:10289000DFF850C0FC446344D3F8F8309A42039008
:1028A000029105D0FFE7039800F012FC019014E0BC
:1028B00003988168C26852008A4205DAFFE70398EC
:1028C00000F006FC019008E0039800F071FD002084
:1028D0000299886003980190FFE7019804B080BDD9
:1028E0003CFEFFFF3CEFFF1780B584B00A4603466D
:1028F000DFF824C0DFF824E0FE44F444DCF8D4C060
:1029000003916146DDF80CC00292624601930BF020
:1029100071FC04B080BDC0463CFEFFFFD8EEFF173F
:1029200010B5ADF50A7D0B460029879386908592F8
:1029300004D0FFE78598002815D1FFE7FFE7DFF80F
:102940007C07DFF8841779440844DFF880271144B6
:102950008490FDF735FF8390FDF77FFF849883997E
:10296000FDF784FFEBE78798C168FFF79DFB014601
:10297000806882918190FFE70020014680907F91DE
:10298000FFE77F988099024603467E907D927C9176
:102990007B93FFE77B987C997D9A819B9842844644
:1029A00096467A90CDF8E4C178927791CDF8D8E147
:1029B00011DAFFE782987A9900EB41029289134677
:1029C00001F1010C7D2A6246CDF8D4C17493739253
:1029D00000F0138316E376987799799A7291719043
:1029E0007092FFE770987299719A7E9B9A426F90ED
:1029F0006E916D920ADDFFE76D987E99431A869875
:102A000082997E9A0BF01EFE6C90FFE76F98819979
:102A1000884204D1FFE786980DF50A7D10BD6F98B6
:102A2000411C0A46819B99426E996B926A9107D12B
:102A3000FFE76A9869900BF0EFFE6998689013E0E1
:102A400082986B9900EB410292891346302A1A460C
:102A500067936A92EDDBFFE7679881B2392967993E
:102A60006A906891E5DCFFE7689800216B9A6691AF
:102A700065906492FFE764986599669A02EB82021A
:102A800089B201EB4201303901300246819B984204
:102A90006391629203D1FFE70BF0BEFEFFE78298DD
:102AA000629900EB4102928913462F2A1A46DDF8FB
:102AB0008CC1619160935F92CDF878C116DCFFE71D
:102AC0005E9861995F9A859BD3F808C060455D90D8
:102AD0005C915B9209DAFFE7829800F10C015B9A46
:102AE0005C9B5A915992589335E020E0609881B2EE
:102AF00039296299639A5F9061915E92E0DCFFE709
:102B000044F24020C0F20F00639981426098629ABB
:102B1000609BDDF888C1DDF88CE166916590649278
:102B20005F93CDF884C1CDF878E1A4DBC8E7DFF886
:102B30008C05DFF88C1579440844DFF888251144AA
:102B40005790FDF73DFE569008F0A0FB5798569918
:102B5000FDF78CFEEBE758985999819A904203460D
:102B60005590549353910FDBFFE75398549982B2D9
:102B700000239C462C2A0A46CDF848C15191509317
:102B80004F904E9212D0FBE15A98559930F811208F
:102B90001346202A1A4654914D935392E5D1FFE7EC
:102BA0005598411C4D9A59925891D4E75198411C1F
:102BB000829A02F10C034C934B9166E14A98499931
:102BC000819A9042034648904793469117DBFFE76E
:102BD00046984799859A5D9B02EB830CDCF80CC004
:102BE0001FFA80FE0024BEF13A0F8E46CDF814E1A4
:102BF0004491CDF80CC14290419412D01FE040980E
:102C0000489930F811201346202A1A4647913F93DD
:102C10004692DDD1FFE74898411C3F9A49924A917C
:102C2000CCE74498411C829A02F10C038C468E46F4
:102C30003E913D93CDF8F0C0CDF8ECE09EE0419898
:102C40004599429A93B27D2B3A903991389203D0AC
:102C5000FFE70BF0E1FDFFE73998411C3791FFE7F3
:102C600000200146002808463690359106D1FFE73E
:102C7000439806F041F900284AD159E03598369931
:102C8000002834910AD1FFE7DFF81804DFF81814A0
:102C900079440844D0F8D4003490FFE73498C168F0
:102CA000339A511A329B13F0FF0F319030910AD0B2
:102CB000FFE7869831990AF0A1F8329911F0FF0FD9
:102CC0002F9010D113E030980128F2DBFFE7DFF8F6
:102CD000DC03DFF8DC137944415A8698309A0BF014
:102CE00099FB2E90E5E73098002805DCFFE738983F
:102CF000379980907F9144E6DFF8B803DFF8B81386
:102D00007944415A8698309A0BF084FB2D90EEE777
:102D1000439806F0C1F82C9003F012F8C068002226
:102D20002C992B9008463A992B9B98472A9020E0A3
:102D30004398002803D1FFE700202A9019E0439828
:102D400000F10801889100218991889A083A8991B7
:102D500089A9A1F108001146FDF7B0FD89984068E6
:102D6000C069C068439929900846299A90472A90DB
:102D7000FFE72A982A99369135907FE73B983C994E
:102D8000819A90422890279103D1FFE70BF044FDF0
:102D9000FFE78298289900EB41029289134601F1DE
:102DA000010C7B2ACDF898C0259305D1FFE7269822
:102DB0008199884255DA59E0259881B27D29269972
:102DC00024910AD1FFE7269881998842259A279B6A
:102DD0002390229221930DDA1AE0249827994A1C15
:102DE000829B03EB410CDDF894E0ACF80CE03C92E4
:102DF0003B90C3E721982299239A013A0023DDF8FA
:102E0000F8C0604520901F911E921D9310DC21E0B8
:102E10003D98269930F811207D2A259A279B2391E9
:102E200022922193E6D1FFE72698411C2491D4E712
:102E300020983E99421A10461C92FEF7ABFA0146C2
:102E4000829A1B9111463E9A1C9BFFF70BFC1B9824
:102E50001D90FFE71D981F991E9A4592429141903F
:102E6000EDE60BF0D9FC26981A900BE08298269993
:102E700000EB410292897B2AF3D1FFE72698411C9F
:102E80001A91FFE71A982490A7E74B9881998842F6
:102E900002461990189206DBFFE71898819988423C
:102EA00017900CD00EE04C98199930F81120202A78
:102EB0001891F2D1FFE71998411C4B91E5E70BF00F
:102EC000ABFCFFE78298179900EB41029289134609
:102ED0004FF0000C2D2A1691CDF854C0149308D150
:102EE000FFE71798411C0A46819B9942139277D0BD
:102EF00079E016981499159A8BB22F2B1290119194
:102F0000109203DCFFE70BF087FC04E0119881B21C
:102F10003929F8DCFFE700201199129A0F900E91E1
:102F20000D92FFE70D980E990F9A02EB820289B27B
:102F300001EB4201303901300246819B98420C91ED
:102F40000B9203D1FFE70BF067FCFFE782980B9928
:102F500000EB4102928913462F2A1A46DDF830C051
:102F60000A9109930892CDF81CC018DCFFE7079876
:102F70000A99089A109B52934F9250904E91FFE7F6
:102F80004E984F99529A509BDDF808C20CF10C0EE6
:102F90004991CDF800E1329233934A900EE60998B8
:102FA00081B239290B990C9A08900A910792DEDCBC
:102FB000FFE744F24020C0F20F000C9981420998CB
:102FC0000B9A099BDDF82CC0DDF830E00F910E90D4
:102FD0000D920893CDF828C0CDF81CE0A2DBC6E71F
:102FE0000BF01AFCFFE78298139900EB41029289DB
:102FF00001231691159314927BE775988199884265
:103000003BDA3FE0739874998AB27B2A02460690B5
:1030100005920AD1FFE7069881998842749A789BB5
:103020000490039202930FDA16E0059878994A1CEF
:10303000829B03EB410CDDF8D0E1ACF80CE07D9213
:10304000CDF8F0E17B90A5E402980399049A013A47
:10305000729171907092C5E48298069900EB4102DA
:1030600092897B2A749A789B049103920293EBD104
:10307000FFE70698411C0591D7E70BF0CDFB75984B
:1030800001900BE08298759900EB410292897D2AAC
:10309000F3D1FFE77598411C0191FFE70198739008
:1030A000B0E7C0463CFEFFFF40EBFF17325402E89A
:1030B000FAEAFF17305402E8D0EAFF1738EAFFFFB8
:1030C0009AECFF17EC2E01E88AEEFF179C0401E84A
:1030D00080B584B00146C268039010460292019107
:1030E000FEF758F900F11001039A02F11003009065
:1030F00008461946029AFFF703FB009804B080BD0A
:1031000080B58CB0034600280B930A92099105D034
:10311000FFE70B980028089010D017E009980028C6
:10312000F7D1FFE70A980028F3D1FFE72A482B4997
:1031300079440844D0F8D40007904AE0264828494A
:1031400079440844D0F8D4000890FFE7089809991A
:1031500000290690059108D1FFE71F4821497944CD
:103160000844D0F8D4000590FFE705980A99002993
:103170000490039108D1FFE717481B49794408449C
:10318000D0F8D4000390FFE703980699CA68049B1F
:10319000D3F80CC06244D0F80CC0624402901046D0
:1031A000FEF7F8F800210190069AFFF723FA069837
:1031B000C1680198049AFFF71DFA0698C168049A3D
:1031C000D36819440198029AFFF714FA01980790FE
:1031D000FFE707980CB080BD3CFEFFFFA0E6FF179D
:1031E00090E6FF1772E6FF1754E6FF1710B583B09D
:1031F00013468C46864600F1100424F81210511C28
:10320000002224F81120C160CDF808E0CDF804C0F8
:10321000009303B010BDB0B589B09C4696460446F5
:103220001D461A44103008900794CDF818E0059216
:10323000CDF810C003910295FFE7029805998842E6
:1032400002460190009208DAFFE703980899019A74
:1032500021F81200531C0293EFE700980021089A0E
:1032600022F8101005980799C86009B0B0BD70B574
:1032700086B013468C468646CC68151900F11006B8
:10328000103106EB4202059010462246CDF810E0C0
:10329000039602950193CDF800C0FEF7D3FF0020FE
:1032A0000399029A21F812000598C26006B070BD19
:1032B000B0B588B0DDF830C09E4604460CEB03057F
:1032C0001030012B0790CDF818E005920495CDF849
:1032D0000CC00291019404DBFFE70298002809D199
:1032E0000DE000200799049A21F812000198C260AD
:1032F00008B0B0BD02988168002911D1FFE7002015
:103300000090FFE700980799039A01EB4203DDF86C
:1033100014C000EB4C011846069AFEF793FFE0E755
:10332000029800F10C010091ECE780B584B00A46E8
:103330000346D0F80CC003916146DDF80CC0029240
:103340006246019300F002F804B080BD80B586B0FB
:103350001346844605901046CDF810C003930291A1
:10336000FEF718F80599CA68002A019007D1FFE70F
:103370000021019800F014F8019800900DE00198E8
:10338000103004991031029AFEF75CFF01980299FF
:1033900000F006F801980090FFE7009806B080BDA5
:1033A00082B00A460346C1600193009202B07047A2
:1033B00082B001468268C0680130034690420193A2
:1033C000009107DAFFE70098019900EB4102002322
:1033D0001382FFE702B0704780B582B009480A49FE
:1033E00079440844094A0A44C0F8D420D0F8D800E7
:1033F000074A11441922019008460199FDF746F841
:1034000002B080BD3CFEFFFFF0E3FF17600B01E858
:103410007C0B01E810B586B00A460346DFF840C0D1
:10342000DFF840E0FE44F4440F4C744405906046DD
:10343000049121460393CDF808E00192FDF7C0F90D
:103440000090059908F018F808480949029A8A5826
:103450000299415A0098049B08F056F906B010BD35
:1034600038EAFFFFACE3FF175C2E01E8CC5302E81B
:10347000D05302E880B584B00A46104BDFF840C054
:10348000FC4463440390084619460292FDF7E6FBAC
:10349000002803D1FFE7002001900CE0074809490C
:1034A000794401440298FDF785FD8168039800F096
:1034B0000BF80190FFE7019804B080BD1C0C01E8F7
:1034C00050E3FF1730E3FF1782B00A4603468068D7
:1034D0004FF0000C884208BF4FF0010C604601928B
:1034E000009302B0704781B001468068009101B03E
:1034F000704780B584B00146806803910290FDF763
:10350000F5FD0299019008460199FFF783FF04B089
:1035100080BD80B584B00146806803910290FDF7BC
:10352000E5FD0299019008460199FFF773FF04B089
:1035300080BD80B586B00A46034680680591049335
:1035400003920290FDF7D2FD029901900846059979
:10355000019AFEF7C3F806B080BD82B00A46034662
:1035600081600193009202B0704781B00146002251
:103570008260009101B0704781B00146806800917F
:1035800001B0704780B584B001460022039203AABF
:10359000083A02901046029A01911146FFF7DDFFAA
:1035A000039804B080BD80B582B00020019001A8CE
:1035B0000838FFF7DAFF019802B080BD80B584B00B
:1035C00001460022039203AA083A02901046029A8A
:1035D00001911146FDF772F9039804B080BD84B0E3
:1035E0000A4603460290039102984FF0000C88426D
:1035F00008BF4FF0010C60460192009304B0704781
:1036000084B00A4603460290039102984FF0000CE2
:10361000884218BF4FF0010C60460192009304B03D
:103620007047C046B0B586B00A460346DFF838C0DA
:10363000DFF838E0FE445CF80EC00D4C74440D4DCC
:10364000AE4405902046049171460392624602936F
:10365000FEF7A6FD0599019008460499019A00F02D
:103660000BF806B0B0BDC046045202E89CE1FF175B
:1036700038EAFFFF8C0201E870B592B013468C4621
:103680008646464C464D7D442C44464E2E44119071
:103690002046109131460F920E950D940C93CDF863
:1036A0002CC0CDF828E0FDF78BF81199C8643E488E
:1036B0000E9A1044D0F8FC3003F1010CC0F8FCC0A5
:1036C0000020C1F2342018438860109848610F9B95
:1036D0008B61DFF8D8C094440D986146CDF824C0C2
:1036E000FDF76EF8089000F0BCFB08981199C861CE
:1036F0000D980999FDF764F8079000F0B2FB079860
:103700001199086208224A62294A0E9B1A440D98B0
:1037100011460692FDF754F80590119900F0A5FBAB
:103720000598119988620D980699FDF749F804905B
:10373000119900F09AFB04981199C8621D4A0E9BDA
:10374000D1180D98FDF73CF8039000F097FB039813
:1037500011994863184A0E9BD1180D98FDF730F85F
:10376000029000F0C1FB02981199886302220A615D
:10377000124A0E9BD1180D98FDF722F810490E9AA7
:103780000A4401901199FEF799F911988269C0696C
:10379000019900F021F912B070BDC04638EAFFFF70
:1037A0004AE1FF173C0D01E83CFEFFFFEC0D01E88C
:1037B0007C0E01E80C0F01E89C0F01E82C1001E8D9
:1037C000D52700E880B584B0014690F8240010F0B9
:1037D000080F039112D1FFE7FFE71148114979441F
:1037E0000844114A11440290FCF7EAFF019000F0EE
:1037F00061F802980199FDF739F8EEE70398416AFC
:1038000021F0080141620449044A7A448818039966
:1038100000F00CF804B080BDACEAFFFFC6DFFF1774
:1038200038EAFFFFF2DFFF17AC0C01E880B588B083
:103830000A4606AB4FF0000CCDF818C0C96A0590D7
:1038400008460493039201F061FA10F0FF0F07D1CC
:10385000FFE71648164979444058FCF753FDFFE747
:1038600000200790029000F0D1FE02990791079086
:10387000020E049BDA70020C9A70020A5A701870D9
:103880000598039901F00CFA0598039901F053FA91
:1038900001F094FA059901900846019901F0DAFACD
:1038A000069800F0D5FE08B080BDC046145202E86C
:1038B0007ADFFF1780B582B00146054A054B7B448D
:1038C0001A440191114607F0BAFC02B080BDC0460F
:1038D000FC3101E812DFFF1782B00A46034601619E
:1038E0000193009202B0704780B582B00146019109
:1038F00000F004F800F018F802B080BD80B584B084
:103900000146019104F0FEFF00220392029202AAF6
:10391000083A00901046009A0B4604F04DFF0298BA
:10392000039904B080BDC04680B584B00A46034602
:10393000DFF82CC0DFF82CE0FE44F444DCF81CC0B7
:10394000DCF808C003906046DDF80CC002926246C5
:1039500001930B4601F02CFD009004B080BDC046E1
:10396000ACEAFFFF98DEFF1780B586B0014604AAD7
:103970000023049380690028039202911DD0FFE781
:1039800000200590019000F041FE019905910590FD
:10399000020E039BDA70020C9A70020A5A701870B9
:1039A0000298806905F03EFF019802998860C8601E
:1039B0008861049800F04CFEFFE706B080BDC04669
:1039C00080B50348034979444058FCF79BFC80BD0F
:1039D000785302E80ADEFF1710B5ADF56C7D0B4693
:1039E0000DF1700CE64648241B9060461A91214662
:1039F0001993CDF860E017921694CDF854C01CF0DE
:103A000026FA00202E901A9901F108022F92309088
:103A10002F9AA2F10801309030AA083A149010466B
:103A2000FCF74CFF30984068C06980691A99139080
:103A30000846139A90470146159A12901046169B15
:103A4000119119461CF003FA15981A99CA682E921A
:103A5000149B31930DF1C40CACF1080C109060462E
:103A60001146FCF72BFF159800F14001319A01F83F
:103A7000022B130E4B70130C0B70110A8DF8B11042
:103A80001499329132AAA2F10800BF4ABF4B7B447D
:103A9000D158FFF762FD159800F14401329A01F800
:103AA000022B130E4B70130C0B70110A8DF8B5100E
:103AB0006FF002011C9102211D91129900290F90B3
:103AC00022D0FFE7119800F108010022E992E9AB4A
:103AD000A3F108000E92FCF7F1FEE998EA900E9827
:103AE000EB90EA990839EB90EBAAA2F10800FCF7F9
:103AF000E5FEEB98109901F8280F020ECA70020C2F
:103B00008A70000A487013E00020339033A9083906
:103B10000D9008460D99FFF720FD3398109901F894
:103B2000280F020ECA70020C8A70000A4870FFE764
:103B3000179807F0A9F91B9988606FF00200C86018
:103B40001798FDF769FAC1171B9A0C9010460B9154
:103B5000FFF712FD0C99081A0B9A62F100024FF060
:103B600000034728184688BF0120002AC8BF012348
:103B7000002A08BF0346002B07D1FFE78448854988
:103B800079444058FCF7BEFBFFE71B9881683491ED
:103B9000A1F108000F9A0A91114607F0A4F90A98BA
:103BA000806A35A948220990084618991CF052F9F4
:103BB0003F990998FFF713FD10F0FF0F07D1FFE7BA
:103BC0007548764979444058FCF79CFBFFE70A9812
:103BD000C06A47A948220890084618991CF03AF98B
:103BE00052990898FFF7FBFC10F0FF0F07D1FFE791
:103BF0006B486C4979444058FCF784FBFFE70A980E
:103C0000006B59A948220790084618991CF022F920
:103C100065990798FFF7E3FC10F0FF0F07D1FFE766
:103C20006148624979444058FCF76CFBFFE70A9809
:103C3000406B6BA948220690084618991CF00AF9B7
:103C400078990698FFF7CBFC10F0FF0F07D1FFE73C
:103C50005748584979444058FCF754FBFFE70A9805
:103C6000806B7DA948220590084618991CF0F2F84F
:103C70008B990598FFF7B3FC10F0FF0F07D1FFE712
:103C80004D484E4979444058FCF73CFBFFE70A9801
:103C9000C06B8FA948220490084618991CF0DAF8E6
:103CA0009E990498FFF79BFC10F0FF0F07D1FFE7E8
:103CB0004348444979444058FCF724FBFFE70A98FD
:103CC000006CA1A948220390084618991CF0C2F87C
:103CD000B1990398FFF783FC10F0FF0F07D1FFE7BE
:103CE00039483A4979444058FCF70CFBFFE70A98F9
:103CF000406CB3A948220290084618991CF0AAF813
:103D0000C4990298FFF76BFC10F0FF0F07D1FFE793
:103D10002F48304979444058FCF7F4FAFFE70A98F5
:103D20000168C5A84822189B019119461CF092F819
:103D3000C5980021019A824208BF0121002907D1BC
:103D4000FFE72548254979444058FCF7DBFAFFE7AF
:103D50000A984168D7A84822189B009119461CF080
:103D600079F8D8980021009A824208BF01210029E1
:103D700007D1FFE71A481B4979444058FCF7C2FABB
:103D8000FFE70DF56C7D10BD7C5302E842DDFF17A7
:103D9000A85302E850DCFF17A45302E80CDCFF171D
:103DA000A05302E8DCDBFF179C5302E8ACDBFF17F3
:103DB000985302E87CDBFF17945302E84CDBFF17B3
:103DC000905302E81CDBFF178C5302E8ECDAFF1774
:103DD000885302E8BCDAFF17845302E88ADAFF1737
:103DE000805302E858DAFF1780B584B0FFE70B482C
:103DF0000B49794408440B4A0A4403900291114646
:103E0000FCF7DEFC0849029A1144019006F000FF1D
:103E100003980199FCF72AFDE9E7C04638EAFFFF5D
:103E2000DED9FF172C2501E8DC2901E880B582B036
:103E30000146019106F0F0FF02B080BD81B001465D
:103E40008068009101B0704782B00A4603468160E5
:103E50000193009202B0704780B5FFF7A4FB80BDCC
:103E6000704780B50CF045FD80BD82B00A46034620
:103E700001610193009202B07047C04680B588B0DE
:103E80000146164A164B7B441A44DFF858C0634477
:103E9000079010460691194605930492FCF790FC92
:103EA00000210390029105F03DFC0398079988607A
:103EB00004980599FCF784FC0190029905F032FC06
:103EC00001980799C860886801990DF0BBFB0798B5
:103ED0008168C0680DF0BEFB08B080BD38EAFFFF06
:103EE0004AD9FF17BC2501E880B588B00146164ABB
:103EF000164B7B441A44DFF858C0634407901046C1
:103F00000691194605930492FCF75AFC0021039090
:103F1000029105F0B5FC039807998860049805990B
:103F2000FCF74EFC0190029905F0AAFC0198079954
:103F3000C860886801990DF0ACFB07988168C0687B
:103F40000DF0AFFB08B080BD38EAFFFFDED8FF17E9
:103F5000DC2601E880B586B001460069002805919D
:103F6000049006D0FFE70498816800220391029232
:103F700008E0059880680599CA68904700E0FFE767
:103F800006B080BD0298039988420190F7DAFFE7F6
:103F90000498019900EB8102D2689068D26890473A
:103FA0000198411C0291EDE7014640690191FFF73C
:103FB000D1FFFFE70198416A41F0010141620449E4
:103FC000044A7A448818019900F006F87047C04600
:103FD000ACEAFFFF0ED8FF1780B584B00A4603464F
:103FE0000392029300F05CFF064807497944405C65
:103FF000019101F05DFD054801994058FCF782F9F7
:1040000004B080BD045302E8E4D7FF17085302E868
:1040100080B582B0014600F1340201901046009153
:1040200000F00DF8019890F8241011F0010F04D061
:10403000FFE7009800F01EF8FFE702B080BD80B5F2
:1040400084B001468268013282600269436903904C
:1040500002910192009319F099F90399CA68801AA4
:10406000019A8018009A42F1000208614A6104B086
:1040700080BDC04680B582B001460D4A0D4B7B44E1
:104080001A4401901046019A0091114600F019FB64
:104090000198416A41F010014162016B002905D08D
:1040A000FFE70098006B00F022FBFFE702B080BD45
:1040B000ACEAFFFF52D7FF1780B582B0014634301B
:1040C000019100F002F802B080BD80B582B00146D7
:1040D0000190009119F05AF90199C86002B080BDB1
:1040E00080B5034803497944084400F005F880BDD1
:1040F000ACEAFFFFEAD6FF1780B582B0019000F06E
:104100002BFF0F480F4979440844D0F8F8000028E5
:10411000014618BF01210029009007D1FFE70A4896
:104120000A4979444058FCF7EDF8FFE701980099F7
:1041300000F001FE0021019800F08CFE02B080BD6D
:104140003CFEFFFFCAD6FF17185202E8AED6FF1793
:1041500080B598B00A460F910E920D9000F086F847
:104160000F9801698A69C9693C4BDFF8F4C0FC44C7
:104170006344D3F894C0D3F89830119110921393FC
:10418000CDF848C04B408CEA020C43EA0C03002BEC
:104190000C920B9106D1FFE70D98806B0E9900F001
:1041A000B3F84EE00D98806B00F078F801210A9189
:1041B0000990FFE709980A990890079100F075F8AF
:1041C00010F0FF0F089807990690059120D0FFE79F
:1041D000089801698A69C969159114920B9B179314
:1041E000DDF830C0CDF858C04FF0000E6245724681
:1041F00088BF0122994288BF4FF0010E994208BF43
:104200009646BEF1000F0799049003911BD11FE061
:104210000598069902910190FFE7019802990E9A7C
:104220000090104600F04AF8009810F0FF0F07D0F9
:10423000FFE70C480C497944084400F056F8FFE7C2
:10424000FFE718B080BD0398049902910190E4E75C
:104250000898816800220A920991ABE73CFEFFFFB3
:1042600062D6FF17ACEAFFFF9AD5FF1780B582B080
:1042700018F0E8FD019018F0EFFD0021022838BF8A
:104280000121019841EA000111F0010F04D1FFE77B
:104290000020FCF737F8FFE702B080BD81B001468F
:1042A00080688068009101B0704781B001468068E5
:1042B000002818BF0120009101B0704782B002466B
:1042C000806800280192009106D0FFE7019881687C
:1042D000C268CA609160FFE70098C168019A8A606D
:1042E000D1609060C26002B0704780B582B0014674
:1042F00090F820000028019104D1FFE7019800F018
:104300007DFFFFE702B080BD80B584B00A4603465A
:10431000C06803900846039902920193FFF7CEFF0D
:1043200004B080BD80B586B0014601900091FFF7D2
:104330009DFF019800F02AF8019801698A69C9690E
:104340000E4BDFF83CC0FC446344D3F894C0D3F870
:104350009830039102920593CDF810C0594082EA3B
:104360000C021143002907D0FFE7064806497944AB
:104370000844FFF7BAFFFFE706B080BD3CFEFFFF31
:104380008AD4FF17ACEAFFFF62D4FF1781B0014661
:1043900080680028009106D0FFE700988168C26815
:1043A000CA609160FFE7002000998860C86001B092
:1043B0007047C04680B588B0014605900491FFF76C
:1043C00055FF0598806B00F027F8014600280391FF
:1043D00008D0FFE703988169C26906AB079206918E
:1043E00002930CE006A80A490A4A7A441144D1F81B
:1043F0009420D1F89810079106920290FFE7029856
:104400000168406801900846019908B080BDC04627
:104410003CFEFFFFE6D3FF1783B001468268C06809
:10442000926882420292019104D0FFE702980169EA
:10443000009102E000200090FFE7009803B0704771
:1044400010B594B0194694468646CDF83CE00E93DC
:104450000D900C91CDF82CC00A92FFF707FF0D9834
:10446000806BFFF71BFF002109910890FFE7089878
:104470000899099A07920691FFF717FF10F0FF0FAE
:10448000079805901FD0FFE7069801698A69CB69F4
:1044900011931092DDF838C0CDF84CC0DDF828E05B
:1044A000CDF848E000247245224688BF01226345CA
:1044B00088BF0124634508BF1446002C079A049165
:1044C00003920ED110E005980290FFE7029810F0D9
:1044D000FF0F04D0FFE70F9800F014F8FFE714B0C7
:1044E00010BD03980290F1E70698816800220498B5
:1044F0000191114600F01AF80120019909900891E4
:10450000B5E7C04680B582B00146064A064B7B44FB
:104510001A4401901046019A0091114600F01DF8CE
:1045200002B080BDACEAFFFFC2D2FF1780B582B0F7
:10453000024690F820000028019200910BD1FFE77D
:104540000098019981F82100012281F82020084675
:1045500005F064FAFFE702B080BD80B58AB00A4674
:10456000002308930993079106920590049300F0A5
:104570004DF80499099109900890079890F8242023
:1045800012F0200F03D1FFE708A8039016E0069869
:10459000416A21F0200100F075F90598069900F0B4
:1045A000CAFB08A8029000F009FC05990190084692
:1045B000019900F04FFC02980390FFE70398006810
:1045C00000F046F80AB080BD80B588B00A460346C0
:1045D0004FF0000CCDF818C0CDF81CC00591049028
:1045E00003920293CDF804C000F010F801990791EE
:1045F000079006900498406B059A916800F01AF8AD
:10460000069800F025F808B080BDC04680B582B09D
:1046100018F022FC0549064A7A4489580190084658
:1046200000F016F8019802B080BDC046585202E86A
:10463000B8D1FF1780B584B00A460346C06803901E
:1046400008460399029201930DF00CF804B080BD66
:1046500080B582B00146019118F008FC02B080BD1F
:1046600080B500F003F904F079FC80BD80B586B018
:104670000146002204920592039002910192FFF7F5
:10468000C5FF01990591059004900398806800F09A
:1046900005F80498FFF7DCFF06B080BD81B0014645
:1046A00080680028009106D0FFE700988168C26802
:1046B000CA609160FFE7002000998860C86001B07F
:1046C0007047B0B584B00A460346D1F83CC0D1F873
:1046D00040E04C6C896C24306D4669602C6061460A
:1046E00003927246029300F013FC04B0B0BD80B593
:1046F00086B0014601220273806800F1080204922C
:1047000000220592049B083B059205AA083A0390F3
:10471000104602911946FCF7D1F805984068C06927
:10472000C069039901900846019A904706B080BD80
:1047300080B58AB000210691079105900491FFF79A
:1047400065FF0499079107900690FFE70598806B35
:10475000FFF762FE01460028039101D1FFE704E064
:1047600000210398FFF7E2FEF0E70598406B00F0A8
:104770002BF80146002802910DD1FFE70598C06A89
:1047800000F036F80598806A00F032F80698FFF7D6
:104790005FFF0AB080BD029800F108010891002176
:1047A0000991089A083A099109A9A1F1080011464E
:1047B000FCF784F809984068C069C06902990190C3
:1047C0000846019A9047D0E783B001468268C068E6
:1047D000926882420292019104D0FFE70298016937
:1047E000009102E000200090FFE7009803B07047BE
:1047F00081B0014680680028009106D0FFE700984C
:104800008168C268CA609160FFE7002000998860F3
:10481000C86001B07047C04680B584B002460390BE
:1048200002910192FFF722FD0D480E497944084498
:10483000D0F8F80003998860002805D0FFE70198B8
:104840008068FFF7E5FBFFE70298FFF735FC0448B7
:104850000549794408440299C0F8F81004B080BDB5
:104860003CFEFFFFA4CFFF177ECFFF17034804498C
:1048700079440844D0F8F800C06870473CFEFFFF58
:1048800060CFFF1782B00A4603464162019300924F
:1048900002B0704782B00A460346C160019300929D
:1048A00002B0704787B00A4603460690059104930C
:1048B00003920290FFE70298059904290190009164
:1048C00009D3FFE70220019941F8040B0098021F69
:1048D00005920291EFE707B07047C04680B584B0FB
:1048E0000346007800F0FE004FF0000C042808BFDB
:1048F0004FF0010CBCF1000F03930292019107D01D
:10490000FFE71048104979444058FBF7FBFCFFE7EC
:10491000FFE703980168019A1302DDF808C043EA33
:104920008C235FFA81FE43EA0E0300911946009A38
:1049300000F00CF80099884202D1FFE704B080BD76
:10494000E7E7C046085202E8CACEFF1710B58AB0A2
:1049500013468C4686460024089409940792CDF8A5
:1049600018E005900493CDF80CC002910194FFF774
:104970004DFE019909910990089005980268079BDE
:104980009A42009204D1FFE7029806990860FFE777
:104990000898FFF75DFE00980AB010BD4FF4007054
:1049A0007047C04680B588B001461A4A1A4B7B440E
:1049B0001A44DFF868C09C4407901046069161468F
:1049C00005920493FBF7FCFE1549049A0A440390F0
:1049D0000799FDF773F813480499425812480144A7
:1049E0000598FDF7DDFB1149049A1144059B0290DF
:1049F0001846FBF7E5FE01900399029AFEF73CFE8C
:104A00000198079948610A4A049B1A44C2F8F800C1
:104A100008B080BD38EAFFFF22CEFF172C1001E856
:104A2000613200E80C5202E88C0201E8BC1001E897
:104A30003CFEFFFF80B5FFE700F00EFD0348044990
:104A400079444058FBF75EFCF6E7C046285202E87E
:104A500090CDFF1710B58EB00A460346DFF8BCC0F4
:104A6000DFF8BCE0FE44F4442E4C74440D906046E4
:104A70000C912146CDF82CC00A9409920893CDF8E8
:104A80001CE0FBF79DFE069000F058F806980D9983
:104A900088600B980A99FBF793FE059000F04EF89A
:104AA00005980D99C8600B980A99FBF789FE049048
:104AB00000F044F804980D9908611B4A079BD1182F
:104AC0000B98FBF77DFE1949079A0A4403900D994C
:104AD000FCF7F4FF1648079901440B98FBF770FEAA
:104AE000029003990C9AFEF7C7FD02980D99886110
:104AF000104A079BD1180B98FBF762FE0E49079AE4
:104B00008A580021019000F0A5F801980D99C8611C
:104B100089690D9800F0C4F80EB010BD38EAFFFFA7
:104B20006CCDFF174C1101E82C1001E8D53300E8DB
:104B3000BC1001E8DC1101E8105202E880B588B031
:104B40000146164A164B7B441A44DFF858C06344AA
:104B5000079010460691194605930492FBF730FE24
:104B6000002103900291FFF780F90398079988606C
:104B700004980599FBF724FE01900299FFF775F957
:104B800001980799C860886801990CF03BFD079867
:104B90008168C0680CF03EFD08B080BD38EAFFFFB8
:104BA0008ACCFF177C0E01E880B582B0084809491D
:104BB0007944405800F0C4FA00200190009000F0C1
:104BC00037FC009901910190FFE718F0A3F9FCE789
:104BD000245202E820CCFF1780B584B00A46034671
:104BE0000390084602930192FEF788FE039A9368A9
:104BF00000901846009A0B4600F0DAFB04B080BD26
:104C000080B586B0014600F10802049200220592A8
:104C1000049B083B05920DF1140CACF1080C0390B9
:104C20006046029119460192FBF748FE05984068DC
:104C3000C06980690549064A7A448958039A0090F8
:104C40001046019A009B984706B080BD205402E8A8
:104C500098CBFF1710B586B013468C468646017375
:104C600002610C490C4A7A4411440C4C22440590D0
:104C700008461146CDF810C0CDF80CE00293FBF7C2
:104C80009FFD0190059905F068FB019805998860E2
:104C900006B010BD38EAFFFF6ACBFF17CC3101E840
:104CA00080B584B00A4603460391029001920093B6
:104CB000FFF7DCFA029880680399896A00F018F817
:104CC00004B080BD704780B584B0014682694262FD
:104CD0000390104602920191FFF7EEF903984069A4
:104CE000FEF770FD0298C069FFF7A0F804B080BD20
:104CF00080B584B00A460346C0680390084603990D
:104D00000292019300F07DFB04B080BD82B00146A9
:104D100080680028019103D0FFE70020009007E0A1
:104D20000198C1680022002908BF01220092FFE714
:104D3000009802B0704780B58AB00A460346806981
:104D400081420992089301D1FFE72DE00898C068DD
:104D500000F0E8FA09990A6907920690FFE70698B9
:104D60000699059100F0E5FA10F0FF0F0598049000
:104D700008D0FFE7059801690969079A91420390F5
:104D800014DB16E004980290FFE702980999CA6ABA
:104D900001901046019900F034FB0998416A21F016
:104DA0002001FFF76FFDFFE70AB080BD0398029076
:104DB000EBE7059881680691D1E7C04680B584B0DD
:104DC00004F063FE01460028039103D1FFE70020B1
:104DD000029037E00398411E0A460E2901922ED810
:104DE0000199DFE801F0081114171A1D08080808D6
:104DF0002023082629001548154979444058FBF717
:104E000081FA082002901DE00B2002901AE00C208D
:104E1000029017E00C20029014E00C20029011E0A8
:104E20000C2002900EE00D2002900BE00E2002906C
:104E300008E00A20029005E00A20029002E0082023
:104E40000290FFE7029804B080BDC0461C5302E800
:104E5000D6C9FF1780B584B00A4603460391029372
:104E6000019200F008F90398002804D0FFE70198A8
:104E700008280ED1FFE70298416A826A914207D062
:104E8000FFE7054805497944405800F059F9FFE724
:104E9000FFE704B080BDC046205202E84AC9FF17B0
:104EA00080B58AB00A4603464FF0000CCDF820C00A
:104EB000CDF824C00791069005920493CDF80CC05C
:104EC000FFF7A4FB03990991099008900798FFF751
:104ED0002FFC0698416A079A8A420DD1FFE708A87D
:104EE0000290FFF76BFF0499019008460199FFF7C4
:104EF000B1FF0298009005E00598FFF7BBF808A8FD
:104F00000090FFE700980068FFF7A2FB0AB080BDA1
:104F1000F0B58BB0119BDDF840C096460C460546B7
:104F20008668039104920693CDF814C0039F3E4413
:104F3000866006694769079108920A93CDF824C0F4
:104F400016EB0C0147EB03024261016102950194EB
:104F5000CDF800E00BB0F0BD80B582B017F072FF65
:104F6000019017F079FF0021022838BF0121019834
:104F700041EA000111F0010F07D0FFE7044805499D
:104F800079444058FBF7BEF9FFE702B080BDC04648
:104F9000E05202E850C8FF1780B58CB00A460023E3
:104FA0000A930991089207900693FFF7D5FF069898
:104FB0000B90FFF72BFB06990B910B900A90099829
:104FC00000F044F810F0FF0F03D0FFE70AA80590A7
:104FD0001EE008980169079A1069CB6A0491194686
:104FE000FFF786FE0498416A41F02001FFF74AFC72
:104FF0000798FFF77AF90AA8014603910290FFF794
:10500000DDFE0799019008460199FFF723FF05E0AF
:1050100005980068FFF71CFB0CB080BD049890F861
:10502000241011F0200F0ED0FFE717F015FF0399A1
:105030000A680090104617F019FF17F0D9FF009882
:1050400017F014FFEAE702980590E1E781B0014606
:1050500090F82000009101B0704780B582B0014601
:10506000426A019000911146FFF765FE019800F039
:1050700002F802B080BD80B582B00146019100F017
:105080007FF802B080BDC04680B584B00146826919
:10509000806A90420390029104D1FFE7029800F0E9
:1050A00046F820E00298C06800F024F80146002885
:1050B00018BF01200028019107D1FFE70B480C49D8
:1050C00079444058FBF71EF9FFE70198039988429D
:1050D00004D1FFE7029800F02AF803E0029800F0FC
:1050E0001DF8FFE7FFE704B080BDC0461C5202E890
:1050F00010C7FF1783B001468268C068C06890423D
:105100000290019104D0FFE702980169009102E04A
:1051100000200090FFE7009803B0704780B582B090
:105120000146006C01910CF0B9F802B080BD80B569
:1051300082B00146006C01910CF0BBF802B080BD5A
:1051400080B582B001464FF6FF72C6F2BF1200234F
:10515000104208BF0123002B019107D1FFE7064849
:10516000064979444058FBF7CDF8FFE7019817F05E
:10517000B7FE02B080BDC0463C5202E86EC6FF17C3
:1051800080B588B0014600220692079205900491EE
:105190000392FFF73BFA0399079107900690059851
:1051A000C06800F017F801460028029103D0FFE71D
:1051B0000298019003E0049881690191FFE701984A
:1051C000049988620846FFF75FFF0698FFF740FAE8
:1051D00008B080BD83B001468268C0689268824290
:1051E0000292019104D0FFE702980169009102E068
:1051F00000200090FFE7009803B0704710B594B00E
:105200000146304A304B7B441A44D2F89430D2F8ED
:10521000982000690F920E910D9300F083F80D997C
:105220000F9A0C920B910A90FFE70A980A990C9A30
:105230000B9B09930891079200F07BF810F0FF0F89
:10524000099807990690059124D0FFE7089800690E
:10525000FFF7B0F80A460346DDF81CC0CDF844C09D
:10526000DDF824E0CDF840E013911290002486454B
:10527000204688BF01208C4588BF01248C4508BF8B
:105280000446002CCDF810C0CDF80CE0029201933A
:105290000BD10FE0059806990E9A009010460A4629
:1052A000009B00F04FF814B010BD019802990390D4
:1052B0000491FFE704980399089A93680B910C9066
:1052C0000A93B2E73CFEFFFFCAC5FF1780B586B060
:1052D00001464FF0010C80F820C00069059104934D
:1052E000039200F01FF80290FFE7029802990191E3
:1052F00000F01FF810F0FF0F0BD0FFE70198816856
:105300000069039A049B0091FFF79AF800980290B5
:10531000EBE70020059981F820000846FFF76EFFB3
:1053200006B080BD81B0014680688068009101B000
:10533000704781B001468068002818BF01200091A5
:1053400001B0704710B58AB019469446059304928F
:10535000154A164B7B441A44D2F89430D2F8982060
:10536000DDF810E0059C0794CDF818E0DDF818E0B2
:10537000079C09920893624083EA0E031A43002AAD
:1053800003900291CDF804C007D0FFE70398406C6A
:10539000049A059B0BF0AFFB04E00398406C0BF004
:1053A0009DFBFFE70AB010BD3CFEFFFF7CC4FF176A
:1053B000B0B58AB019469446864600F108040894B0
:1053C00000240994089D083D099409AC083C079005
:1053D00020460691294605930492CDF80CE0CDF8BD
:1053E00008C0FBF76BFA09984068C06980690799A3
:1053F00001900846049A059BDDF804C0E0470AB016
:10540000B0BD82B00246806800280192009106D0AB
:10541000FFE701988168C268CA609160FFE7009861
:10542000C168019A8A60D1609060C26002B0704722
:1054300080B582B017F010FD0549064A7A448958B4
:1054400001900846FFF704F9019802B080BDC046FC
:10545000545202E894C3FF1780B5BCB0DFF81C04B7
:10546000DFF81C1479440844DFF818240A44399002
:1054700038911146FBF7A4F9DFF80C14389A11445F
:10548000D1F8CC30D1F808119A68DFF80034DDF893
:10549000E0C06344DDF8E4E0379070463691194689
:1054A000FCF77EFE002135903491FFE73498DFF859
:1054B000D813DFF8DC237A441144D1F8CC10896882
:1054C000884233902CDAFFE7DFF8BC03DFF83C14A6
:1054D00079440844D0F8CC00339A00EB8200C068CD
:1054E000369B32901846DDF8C8C03191614600F015
:1054F000F7FFDFF81C14319A8958309001F0F8F961
:10550000DFF8100431994158309800F0F3FF3598D6
:10551000339900EB8102309BD3604A1C3492C5E77B
:10552000D948DC4979440844D0F8D020369B2F90E4
:1055300018462E91114600F0D3FF3799C860D64A1D
:105540002E9BD15800F0D6FFD4482E994258CB4814
:105550000844D34B19442D90FCF722FE0146D14A52
:105560002E9B1A44DDF8B4C02C9060462B91114656
:10557000FBF726F92A90359901F037F82A982C99EB
:10558000C860C94A2E9BD1182D98FBF719F92990AC
:10559000359901F066F829982C990861C34A2E9B29
:1055A000D1182D98FBF70CF92890359901F099F84E
:1055B00028982C994861BE4A2E9B1A442D98114672
:1055C0002792FBF7FDF801462690259101F093F80C
:1055D0002D982799FBF7F4F801462490239101F0C8
:1055E0008AF8269801F08FF8249801F08CF801F0E1
:1055F0009BF801F0CDF80021229101F0F9F88068C4
:10560000AC492E9A11442D9B21901846FBF7D8F8EF
:10561000A9492E9A8958209001F000F9A7482E999F
:105620004158209801F024F9A5482E994158209816
:1056300001F026F92198209901F02AF9A1492E9A22
:105640008A58A1492E9B1944DDF8B4C01F906046CA
:105650001E91FCF7A5FD9D492E9A8A582D991D9003
:1056600008461E99FCF79CFD99492E9A1144032285
:105670001C9008461C99FAF709FF96482E99425843
:105680002D981E99FCF78CFD0121379A1161D36882
:105690001B90184601F02CF98F482E99405801F0C4
:1056A00063F93798C068229901F022F98B482E9946
:1056B000405801F059F93798C0683799096901F0E5
:1056C00017F9229837990861854A2E9BD1182D9891
:1056D000FBF776F81A9001F060F91A98379988600C
:1056E000804A2E9BD1182D98FBF76AF87E492E9A96
:1056F0000A4419903799FCF7E1F97C482E99014446
:105700002D98FBF75DF818901999FDF78BFF189805
:10571000FEF758F82F98D0F8C4100029179122D01E
:10572000FFE7179837998A68544BDFF8D0C1FC44DB
:105730006344DFF8CCE10EEB0C0116901846CDF86F
:1057400054C01492FBF73CF86E49159A8B586E4979
:105750008958EC46CCF800101699149A01F0A0F97B
:10576000002013901EE04848614979440844D0F86D
:10577000C820424B0B44DFF87CC18C441290184681
:10578000119161461092FBF71BF85B49119A0A448C
:105790000F901099FCF792F90F981299C1F8C40074
:1057A0001790BEE7139825990E90084601F09AF9D4
:1057B0004FF07D510D900C911FF0FAFD0D990B905B
:1057C00008460C991FF01CFE0B990843002804D1D1
:1057D000FFE7259801F096F9FFE7239801F082F999
:1057E0004FF081410A9009911FF0E2FD0A9908905B
:1057F000084609991FF004FE0899084300280E98EE
:1058000007900FD1FFE70E98411C2B9A936891FBEC
:10581000F3FC0CFB13112398069101F073F9069821
:105820000790FFE707982B9901EB8002D268259B30
:1058300005901846049201F055F94FF07D511FF084
:10584000CDFC049901F108023A9200223B923A9B66
:10585000A3F108013B923BAA083A03901046FBF7DC
:105860002DF83B984068C069806904990290084609
:105870000399029A90470598139093E738EAFFFF3F
:105880006CC3FF170C1901E83CFEFFFF9C1901E8EF
:105890001AC3FF17ACC2FF17645202E8685202E84D
:1058A0002C1A01E8BC1A01E84C1B01E8DC1B01E8DA
:1058B0006C1C01E81C1D01E86C5202E8705202E801
:1058C000745202E8785202E8AC1D01E87C5202E80A
:1058D000D01D01E8805202E8845202E8885202E8B2
:1058E0004C1E01E82C1001E8DD5100E8BC1001E875
:1058F00066C0FF17DC1E01E8795200E8A2C0FF175E
:105900006C1F01E88C5202E8905202E800C3FF17B6
:10591000945202E8985202E880B584B001460E4ADB
:105920000E4B7B441A44526A82420392029111D078
:10593000FFE70398FEF76CFB0748094979440844E0
:105940000299416201900846FEF7B6FB0198FFF705
:105950009BFBFFE704B080BDACEAFFFFAEBEFF17C4
:1059600094BEFF1780B582B0FEF750FE019000F0A4
:1059700025F800F028F80C480C497944405800916B
:1059800000F02AF80A480099405800F025F8094824
:105990000099405800F020F807480099405800F05E
:1059A0001BF802B080BDC0462C5202E856BEFF175D
:1059B000305202E8345202E8385202E880B5002042
:1059C00017F09EFA80BD80B517F06AFA40F21921EF
:1059D000084317F06BFA80BD80B584B00146002201
:1059E0000028B8BF0122002A039107D1FFE7284809
:1059F000284979444058FAF785FCFFE700200399CD
:105A000011F12A0F029005D1FFE7029817F058FA1A
:105A100004B080BD039800F10E0100220B460D2951
:105A20000193009218D80199009A0292DFE801F0E0
:105A30000707080C1014141414071D142626E4E795
:105A40004FF480300290E0E74FF400300290DCE742
:105A50004FF480200290D8E7134814497944405805
:105A6000FAF750FC00200290CFE70D480D49794429
:105A70004058FAF747FC00200290C6E7064807495D
:105A800079444058FAF73EFC00200290BDE7C0463A
:105A90004C5202E8DEBDFF17485202E850BDFF1726
:105AA000445202E862BDFF17405202E874BDFF177E
:105AB00080B586B00146C0B2113802460028059173
:105AC000049209D0FFE70498012808D0FFE7049862
:105AD000022807D0FFE708E017F01EFA1BE017F0D6
