:020000040800F2
:10000000000005204941010895410108A1020008AE
:10001000E53D0108F93D01080D3E01080000000022
:10002000000000000000000000000000513C01083A
:100030009541010800000000FD3B0108394101081D
:100040009541010895410108954101089541010834
:100050009541010895410108954101089541010824
:100060009541010895410108954101089541010814
:100070009541010895410108954101089541010804
:1000800095410108954101089541010895410108F4
:1000900095410108954101089541010895410108E4
:1000A00095410108954101089541010895410108D4
:1000B00095410108954101089541010895410108C4
:1000C00095410108954101089541010895410108B4
:1000D00095410108954101089541010895410108A4
:1000E0009541010895410108954101089541010894
:1000F0009541010895410108954101089541010884
:100100009541010895410108954101089541010873
:100110009541010895410108954101089541010863
:100120009541010895410108954101089541010853
:100130009541010895410108954101089541010843
:100140009541010895410108954101089541010833
:100150009541010895410108954101089541010823
:100160009541010895410108954101089541010813
:1001700095410108954101089541010800000000E2
:1001800095410108954101089541010895410108F3
:1001900095410108954101089541010895410108E3
:1001A00095410108954101089541010895410108D3
:1001B00095410108954101089541010895410108C3
:1001C000954101089541010810B5054C237833B9D4
:1001D000044B13B10448AFF300800123237010BD1A
:1001E000C0170020000000002CD40108084B10B5F7
:1001F0001BB108480849AFF300800848036803B9F9
:1002000010BD074B002BFBD0BDE81040184700BFC6
:10021000000000002CD40108C4170020B0170020F3
:1002200000000000154B002B08BF134B9D46A3F5A3
:10023000803A00218B460F461348144A121A16F0D2
:10024000F3FC0F4B002B00D098470E4B002B00D037
:1002500098470020002104000D000D48002802D01E
:100260000C48AFF3008016F08FFC2000290014F03A
:1002700021FA16F0EDFA00BF00000800000005208A
:100280000000000000000000C01700201C1C00201F
:10029000000000000000000000000000000000005E
:1002A00000F00FF810F0FF0F00D1FEE700F010F89B
:1002B00010F0FF0F02D0192000F012F81A2000F001
:1002C0000FF880B513F06EFD012818BF002080BD27
:1002D00080B513F075FD00F00200400880BDC046F7
:1002E00080B501460348044A7844104404F088F974
:1002F00080BDC046C81400189C7300E880B500F0AB
:1003000001F880BD70B5164E044616487E44851926
:1003100013F050FD0146284600F03EF812488519BA
:1003200013F054FD0146284600F036F80F482168C6
:10033000304400F031F802F056FF10F0FF0F09D002
:1003400002F058FF10F0FF0F04D013F03FFD13F040
:1003500099FC70BD13F02EFD13F094FC70BDC046E7
:10036000A4140018CC8400E8FC8400E82C8500E884
:1003700010B50748074978440C1813F01BFD0146D7
:10038000204600F009F813F015FD13F07BFC10BDBA
:100390003A140018DC7200E880B50A4601460348AA
:1003A000034B7844184404F051F980BD0E14001832
:1003B0009C7300E880B500F001F880BD70B5164E62
:1003C000044616487E44851913F0F4FC014628467D
:1003D000FFF7E2FF1248851913F0FEFC014628469C
:1003E000FFF7DAFF0F4821683044FFF7D5FF02F02E
:1003F000FAFE10F0FF0F09D002F0FCFE10F0FF0F24
:1004000004D013F0E9FC13F03DFC70BD13F0D2FCF6
:1004100013F038FC70BDC046EC130018DC7200E825
:100420005C8500E88C8500E810B503F0F9F903F06D
:1004300017FA084C08487C44204403F021FA03F0E2
:1004400029FA03F03FFA03F049FA0448204403F084
:1004500051FA10BD7A1300189C7300E81CEAFFFFE4
:1004600080B5806910F8020C1138022818BF0128E5
:1004700000D010B900F004F880BD1820FFF730FF5D
:1004800010B5094809490A4A784401441044406AB1
:10049000C06903F06FF80446A068283013F01EFB13
:1004A000E06813F0CBFB10BD28130018BC9800E8DF
:1004B0001CEAFFFFB0B582B004460025012001957B
:1004C00013F022FB0095CDE90000204600F008F86B
:1004D0000446019813F018FB204602B0B0BDC04698
:1004E00070B505461248134978440144D1E909041E
:1004F00048B11149114AC0697944114403F03AF8EE
:100500002968C0E902510E4E0C487E448119E06909
:1005100003F030F80546E86813F090FB204602F03F
:10052000A1FD08483044C0F8BC40A86870BDC04672
:10053000C81200181CEAFFFFB8120018BC9800E8A7
:10054000A61200183CFEFFFF80B501F0BFFE04F0CC
:100550001FFA80BD704780B5806910F8020C113811
:10056000022818BF012800D010B900F005F880BD9E
:100570001820FFF7B5FEC04610B509480949784470
:1005800008442821406AC469207C002818BF6821DB
:10059000A068084413F0A2FAE06813F04FFB10BD06
:1005A000321200181CEAFFFF70B582B00546002623
:1005B00001200C46019613F0A7FA002C0096CDE915
:1005C0000000284608BF0126314600F007F804461F
:1005D000019813F099FA204602B070BDB0B50E4AEA
:1005E0000E4B7A441344D3E9092432B1D26911F095
:1005F000FF0F11740168C2E90201E569E86813F0B0
:100600001DFB204602F02EFD0548064978440844AB
:10061000C0F8BC40A868B0BDCE1100181CEAFFFFAE
:10062000A41100183CFEFFFF7047C04680B582B0A1
:1006300009490A4A00200190009068467944114413
:10064000C96B02F0BDF80098019007F06BFF01A89C
:1006500004F07CFC02B080BD741100181CEAFFFF9E
:1006600080B582B0002001901120FFF739FE10B54F
:1006700082B000240120019413F046FA0094CDE9E1
:10068000000000F005F8019813F03EFA02B010BD2A
:100690002DE9F0412048DFF88480784408EB00041D
:1006A00013F0D0FCD4E9036705462046294607F03D
:1006B000D1FC801904F10C0247F1000182E823000B
:1006C000D4E9035607E0384607F0D3FC38692A46D8
:1006D000334607F0D9FCA06807F0C3FC074607F0D3
:1006E000C3FC10F0FF0F10D0386981694069A8423F
:1006F0004FF0000088BF0120B1424FF0000188BFD9
:10070000012108BF01460029DDD005487844404456
:1007100007F05AFCBDE8F081161100180CEBFFFF42
:10072000A410001810B582B000240120019413F029
:10073000EBF90094CDE9000000F006F8019813F001
:10074000E3F902B010BDC04680B50A480A497844B2
:10075000084400F110030ECBC91842F1000311F157
:100760000A02C0E9041343F10003C06808F077F8F7
:1007700080BDC04662100018BCEAFFFFF0B581B032
:10078000064615460C4686B194B1304600F028F86E
:100790000746204600F024F80346304639462246F4
:1007A000009500F03DF801B0F0BD0C48784401E040
:1007B0000748784407490C1807490144204600F0CF
:1007C000AFF8054600F0BDF82046294600F0BEF817
:1007D000FE0F001864EAFFFFBC7500E80410001863
:1007E00010B540680A490B4A04697944114420460F
:1007F00000F08CF900281CBF002010BD06480749F6
:1008000078440144204600F079FA406BC06810BD7E
:10081000C60F00188C7700E8B00F00183C7800E88D
:100820002DE9F0411C4600291546A8BF002C39DBF4
:10083000DDF81880B8F1FF3F34DD836801EB080272
:100840009A421CDCAB6804EB08029A421ADC476847
:100850006A68974219D100F091F806462846214669
:1008600000F08CF801468E4208BFBDE8F081F868C0
:1008700008FB00F2304600F087F8BDE8F08116482A
:10088000784411E0124878440EE00E480E4978444E
:100890000C180E490144204600F042F8054600F0CD
:1008A0008FF80BE00D48784407490C1809490144BA
:1008B000204600F035F8054600F08EF8204629461F
:1008C00000F044F8220F001864EAFFFF4C7600E8BD
:1008D0002A0F0018DC7600E8300F00180A0F001805
:1008E00080B54168C9698969884780BD002288420E
:1008F00008BF01221046704780B500F00DFD80BD95
:1009000080B50549054A79441144D0E902321846B8
:1009100001F068F980BDC046AA0E00180C9A00E8E4
:1009200070B50C46204604F0A3F8054604F0A6F87E
:100930002946064615F00DFF0820C6E9000430469A
:1009400070BD80B504F08BFC80BDC046B0B5084DCD
:1009500008487D444419204603F060FE06482844B8
:1009600003F05CFE204603F059FE1720FFF7B8FCA9
:100970005E0E00185C9300E8FC9300E84268D268C1
:1009800001FB02000C30704780B503460020B2F135
:10099000FF3FC8BF012070B18B429CBF98188142B5
:1009A00004D20846194615F0D9FE80BD08461946FE
:1009B00015F0D2FE80BD0820FFF792FC80687047DA
:1009C00080B50349034A7944114404F050FC80BDCA
:1009D000EA0D00183C9B00E880B504F044FC80BDA3
:1009E00070B50F4E04460F480F497E4430443144E1
:1009F000FFF796FF05460D488119284605F079FF57
:100A0000204629460122002300F058F808488119A1
:100A1000284605F00AFB284600F0CEFE70BDC04611
:100A2000C60D001864EAFFFF5C7C00E86CAC00E8CF
:100A30004CA700E880B54268D269936900229847C4
:100A400080BD80B5C06A4168C9694969884780BD71
:100A5000F0B581B005460D480D4F0E46144678445A
:100A60003918304600F0E0FA002802BF002001B03B
:100A7000F0BD084878443918304602F07BFDC16A61
:100A8000E86A224606F070FB01B0F0BD520D001876
:100A90006C8A00E83C0D0018C06A7047704780B54A
:100AA000C06A4168C969496A884780BD80B5C06A23
:100AB0004168C969896A884780BDC04610B5C06A67
:100AC0000C464168C969D1F82CC02146E04704486A
:100AD000044978440144204605F0A7FA10BDC046F9
:100AE000DE0C0018CCAC00E880B50648064A784415
:100AF00002440846114600F009F8002818BF0120FA
:100B000080BDC046C20C00188C7700E8002808BFE2
:100B1000704742688A4218BF0020704770B50F4E78
:100B200004460F480F497E4430443144FFF7F8FE35
:100B300005460D488119284605F0DBFE204629466A
:100B40000122002300F04CF808488119284605F0DE
:100B50006CFA284600F030FE70BDC0468A0C0018C2
:100B600064EAFFFF5C7C00E8BCAA00E84CA700E850
:100B700080B5002200F006F880BD80B5FFF761FF68
:100B800080BDC046F0B581B006461248124F0D46F2
:100B90001446784439182846FFF7B8FFB8B10F4813
:100BA00078443918284600F0A9F8016B326B8A4264
:100BB0000DD1416B706B06F06DFA10F0FF0F06D08F
:100BC000304629462246FFF743FF01B0F0BD002022
:100BD00001B0F0BD1E0C00183C7800E8100C0018A5
:100BE0002DE9F04782B04FF0000805460C46CDE9EC
:100BF0000088E86A4168C969CF6A2146B847274E2C
:100C000027487E448119204605F00FFA27480C2713
:100C100000EB060A264800EB0609002601E008372B
:100C20000136286BF11786424FF0000028BF0120E3
:100C3000B1F1FF3F4FF00001C8BF0121B8EBE67FE3
:100C400008BF014601BB1EB12046514605F0EDF933
:100C5000686B80688642E2DA686BC1593844406844
:100C6000CDE90010009810B901980028D7D000995C
:100C7000204605F0D5FF2046494605F0D6F90199F2
:100C8000204605F0CDFFCAE70648074978440144ED
:100C9000204605F0CAF902B0BDE8F087AE0B001897
:100CA0001CAB00E8240B00183CAB00E88CA300E868
:100CB0005CAB00E8B0B504460E480F4A78440244E5
:100CC00008461146FFF722FF0021054600F012FBFF
:100CD00010F0FF0F0CD1286B216B814208D1696B9A
:100CE000606B06F0D7F9C0B2002818BF0120B0BD74
:100CF0000020B0BDF40A00183C7800E8B0B5002828
:100D000008BFB0BDFFF702FF00B1B0BD07480849FA
:100D100078440C18074901442046FFF701FE0546B8
:100D200003F0FEFD20462946FFF710FEA00A00183A
:100D300064EAFFFF2C9300E880B58168FFF71EFE90
:100D400080BD81607047C046F0B581B006460C4852
:100D50000C4F0D46784439182846FFF7D7FE00247B
:100D600050B109483678784439182846FFF7C6FF4D
:100D70000078864208BF0124204601B0F0BDC0467D
:100D80005C0A0018CC7800E84A0A001880B500F028
:100D9000AAFA00F0ABFA80BD0078704710B504786D
:100DA00000F006F80146204600F024F810BDC046C9
:100DB00010B50B480B4978440844D0F8A800017FCF
:100DC00009B9016951B9084C08497C44214405F02E
:100DD00097FF07492144FFF791FF0146084610BDE0
:100DE000FA0900183CFEFFFFE609001820A300E8FE
:100DF000FCA200E870B50C460A4905460A480B4AB1
:100E0000794408441144FFF78BFD2946064604F057
:100E10005BFA304647214FF0FF32234604F03EFB99
:100E200070BDC046B009001864EAFFFFEC9B00E803
:100E3000B0B505780C46FFF7BBFF024628462146B1
:100E400000F002F8B0BDC0462DE9F04182B00D4679
:100E50000646002001A990460190284604F0D0FAE9
:100E60000746B8B2592806D3642817D0672806D099
:100E700078281CD107E0582805D047280CD10198C4
:100E8000002814DC0AE0019AA0F12101304604F0A8
:100E900007FF02B0BDE8F081442808D1D8F8182037
:100EA0000199304604F028FF02B0BDE8F0811049F6
:100EB0001048114A794408441144FFF731FD314686
:100EC000044604F001FA4FF6FF70074208D0019A79
:100ED00020463946434604F0E1FA02B0BDE8F0810D
:100EE00020462946424604F037FC02B0BDE8F081B6
:100EF000FC08001864EAFFFFEC9B00E8008840EA69
:100F000000407047F0B581B006460C480C4F0D46C6
:100F1000784439182846FFF7F9FD002450B10948F4
:100F20003688784439182846FFF7E8FE008886425C
:100F300008BF0124204601B0F0BDC046A00800183B
:100F40005C7900E88E08001880B5008800F001F890
:100F500080BDB0B50446012000F006F821460546E4
:100F600000F018F82846B0BD10B582B00649044616
:100F70000648074A794408441144621C019100F074
:100F800069FBC46002B010BD3C08001864EAFFFFB2
:100F9000AC7200E8B0B505460C46E8680028D8BF3A
:100FA00000F0B4FB05F11000012101390029B8BFA0
:100FB000B0BD20F8024BF8E7B0B50D4604469DB130
:100FC0002046294600F022F810F0FF0F0CD00D4803
:100FD0000D4978440144284600F026F8054600F003
:100FE00035F810F0FF0F01D00020B0BDA968A2684D
:100FF00000208A4218BFB0BDE968E2688A4208BF93
:101000000120B0BDDE070018EC7900E842684968AD
:1010100000208A4208BF0120704780B50C3000F0E4
:1010200020F880BD8068704710B5044664B16268DE
:10103000914201D1012003E00846114602F030F947
:10104000C0B2002808BF0446204610BD80B5002865
:1010500004BF012080BD4168C9690A690021904729
:1010600080BD00687047C0E90212704780B54168D2
:10107000C969C968884780BDB0B5B1F1FF3F08DDD7
:10108000C268914205DA002818BF103030F811000C
:10109000B0BD0848084978440C1808490144204666
:1010A000FFF73EFC0546FFF797FC20462946FFF771
:1010B0004DFCC0461A07001864EAFFFFDC7600E822
:1010C0002DE9F04182B00D460646002001A9904668
:1010D0000190284604F094F90746B8B2592806D37F
:1010E000642817D0672806D078281AD107E0582836
:1010F00005D047280CD10198002812DC0AE0019A9B
:10110000A0F12101304604F0CBFD02B0BDE8F08132
:10111000442806D10199304604F040FE02B0BDE8F3
:10112000F08110491048114A794408441144FFF7EE
:10113000F7FB3146044604F023F94FF6FF700742EF
:1011400008D0019A20463946434604F0A7F902B078
:10115000BDE8F08120462946424604F0FDFA02B07F
:10116000BDE8F0818806001864EAFFFFEC9B00E808
:10117000F0B581B004460C480C4F0E46784439183F
:101180003046FFF7C3FC002550B1094878443918B0
:101190003046FFF7B3FD00682168814208BF012592
:1011A000284601B0F0BDC046340600187C7A00E83D
:1011B000240600180068704710B50468FFF7F8FDB2
:1011C00001462046FFF716FE10BD10B50468FFF774
:1011D000EFFD01462046FFF70DFE10BDB0B50568D6
:1011E0000C46FFF7E5FD024628462146FFF72CFE98
:1011F000B0BDC046B0B50D460446FDB120462946F7
:10120000FFF704FF10F0FF0F18D00D480D49784488
:1012100001442846FFF708FF0546FFF717FF10F0C7
:10122000FF0F0BD12969206900F035F810F0FF0F8E
:1012300004D020462946FFF7BFFEB0BD0020B0BD58
:10124000A20500180C7B00E8F0B581B0056995B1E6
:1012500005F10C060024002709E056F82700416834
:10126000C9694969884704EB441101370C18A8681B
:101270008742F2DB02E0FFF7D0FE0446204601B0D1
:10128000F0BD016900291FBF0069816800EB810082
:10129000806880687047F0B581B008B1846800E06C
:1012A000002409B18A6800E00022944211D101F1C2
:1012B0000C0500F10C06002700E00137A7420BDA0D
:1012C00055F8271056F8270000F014F810F0FF0F1B
:1012D000F3D1002001B0F0BD012001B0F0BD80B518
:1012E000FFF7C1FE80BD40684069704780B500F0DF
:1012F000C9F880BD80B502468A4204BF012080BD86
:10130000002A4FF0000018BF002904D05068C069BF
:1013100003691046984780BDB0B584B004460020EC
:1013200001210390CDE90100206800F44070B1EB89
:10133000102F02D12068850A4EE0000AA8BB02F0F7
:101340006FFD054636483749019578440844D0F882
:10135000BC00029018B1029800F09CFE00E0022050
:1013600003902846029902F071FD207800F0FE01FA
:10137000002004294FF0000108BF012129B921688C
:1013800001F44071B0EB112F29D0DDE9010102F029
:1013900093FD029848B1029800F07CFE03998842C0
:1013A00003D0DDE9020100F077FE002C204618BFD3
:1013B000012090B32068022100F44070B1EB102F9F
:1013C00002D12068800A02E0204602F09DFD02F072
:1013D00049FE054602F05AFE284604B0B0BD124848
:1013E0001249784408444569691C2A4641612046EF
:1013F000012101F016FADDE9010102F05DFD02981C
:101400000028E9D0029800F045FE03998842E3D015
:10141000DDE9020100F040FEDEE70720FEF760FF95
:10142000660400183CFEFFFFCE0300183CEBFFFFF4
:1014300080687047704780B58068006900F002F8E6
:1014400080BDC046B0B50C4904460C480C4A7944EE
:1014500008441144FFF764FA054602F0D9F86068C1
:10146000294600220023C069D0F82CC02046E0475E
:10147000284600F0A1F9B0BD6203001864EAFFFF3E
:101480005C7C00E880B580680069FFF7DBFF80BD09
:10149000D0F80CC0CB689C451CBF002070470029C9
:1014A00018BF1031002818BF103003E0ACF1020C57
:1014B00004310430BCF1010F03DB0B6802689A426F
:1014C000F4D00020BCF1010FB8BF01207047C04626
:1014D00010B504460848094A7844024408461146B3
:1014E000FFF714FB014619B9002C1CBF002010BDEA
:1014F0002046FFF7CDFF10BDD8020018AC7200E8FF
:1015000080B502468A4204BF012080BD0020002A27
:1015100008BF80BD00291CBF1046FFF7B9FF80BD82
:1015200070B506460C46F068B0F1FF3F22DDF0686A
:10153000001B00281EDBB4F1FF3F1EDD17491848D1
:10154000184A794408441144224600F033F805460D
:10155000012C0DDB002D06F110001CBFA96800292D
:1015600001D1002101E005F10C01224600F038F81C
:10157000284670BD0E48784401E00B48784408497D
:101580000C180A4901442046FFF7CAF9054600F045
:101590002FF820462946FFF7D9F9C0466E020018F9
:1015A00064EAFFFF4C7400E8340200189C7B00E8FA
:1015B0003A020018F0B581B00D461446284621467F
:1015C00003F07CFA064603F059FA3146074615F057
:1015D000C0F80820C7E90005BC60384601B0F0BD7E
:1015E00080B5034608465200194615F0B5F880BD8F
:1015F00080B5002101F0DAFD80BD80B5D0F80CE0A7
:1016000041F2055C0028C1F2055C18BF103063464A
:1016100009E042680CEB4C11AEF1040E083001EB0E
:10162000EC6181EA020CBEF1010FA1BF03EB431193
:1016300001EBE36103684B40A8BFBEF1020FE8DC99
:1016400048F66530C5F658500CFB003080BD806808
:1016500001387047F0B581B00D4614462846214642
:1016600003F02CFA064603F009FA3146074615F056
:1016700070F80820C7E90005BC60384601B0F0BD2D
:10168000B0B5C3685D1AD368AB4209DC00EB41001A
:1016900000F1100102F110001A46FFF7A1FFB0BDE2
:1016A0000748084978440C18074901442046FFF7C9
:1016B00037F90546FFF790F920462946FFF746F926
:1016C0000C01001864EAFFFFDC7600E8F0B581B099
:1016D0001C4616460F460546B4F1FF3F08DDE86894
:1016E000844205DC002E03DBB9683019884201DD35
:1016F00000F00CF8012C07DB07EB460005F11001A8
:1017000022460C30FFF76CFF01B0F0BDB0B50848C1
:10171000084978440C18084901442046FFF700F9AD
:101720000546FFF759F920462946FFF70FF9C0464D
:101730009E00001864EAFFFFDC7600E87047C046B0
:101740002DE9F04105460C46002D18BF002C19D09C
:1017500014491548154AD4F80880EF6879440844BC
:101760001144FFF7DDF807EBC801064600F044F826
:1017700030462946224600F04FF8304600F01CF86B
:10178000BDE8F0810A48084978440C180949014429
:101790002046FFF7C5F80546FFF7D3F8204629464F
:1017A000FFF7D4F85400001864EAFFFF5C7C00E8FF
:1017B00028000018BC7500E8B0B505460C480D4976
:1017C0002C6978440844A968D0F8BC00814204D14F
:1017D000D4E902014900814203DA204600F0F2F91F
:1017E000B0BD204600F0B5FA0020A8602046B0BD8C
:1017F000EEFFFF173CFEFFFF80B50A460449054B8C
:1018000079441944D1F8A01005F068F880BDC046AD
:10181000B0FFFF173CFEFFFF2DE9F04F89B0002914
:10182000CDE9060218BF002A00F0AF810792CA680E
:1018300008461146FFF774FE0646DB494FF00009E3
:101840000027D6F80880A8F10100A8F1020B089043
:10185000D448CDF80CB0784401440091D3490844F1
:10186000029003E00698514605F0BCF83C463D4620
:1018700004E006EB44000134A0F80C9045451FDA63
:1018800006EB45000135B0F80C90B9F17D0F0AD197
:10189000454506DA06EB450080897D2801D10135F2
:1018A00001E005F0D5F9B9F17B0FE2D1454506DA43
:1018B00006EB450080897B2801D10135D9E7013D40
:1018C000BC4205DD0698E31B31463A4605F038F97F
:1018D000454500F04681DDF81CA0681C404509D054
:1018E00006EB4000B0F80C90B9F1300F02DBB9F113
:1018F000390F01DD05F0ACF900242F4604EB84001C
:101900000FFA89F1BB4501EB400408BF05F0A0F9CF
:1019100006EB47000021303CB0F810900020B9F1F0
:101920003A0FB8BF0120B9F12F0FC8BF0121014202
:1019300006D044F240207D1CC0F20F008442DCDB64
:10194000DAF80800844280F2108107F1020B01E00E
:101950000BF1010BC34506DA06EB4B00B0F80C9017
:10196000B9F1200FF4D01FFA89F02C2820D10BF107
:10197000070000E00130851F454503DA36F81010F6
:101980002029F7D0454508BF05F062F906EB450070
:10199000B0F80C90B9F12D0F0ED10135454508BFB7
:1019A00005F056F906EB4500B0F80C90012004E074
:1019B00000200027059036E000200590B9F1300F97
:1019C00005DBB9F13A0FA8BF05F042F901E005F0D7
:1019D0003FF9002707EB87000FFA89F105F1010BAA
:1019E00001EB4000A0F130070898A84208BF05F0BD
:1019F0002FF906EB45000021B0F80E900020B9F158
:101A00003A0FB8BF0120B9F12F0FC8BF0121014221
:101A100009D044F240205D46C0F20F008742D9DB76
:101A200001E00BF1010BC34506DA06EB4B00B0F801
:101A30000C90B9F1200FF4D00AEB8400C4681FFAAF
:101A400089F03A282CD104940BF101040BF107051D
:101A500006F10C0A019402E026F815900135444580
:101A600008BF05F0F5F806EB44000134B0F80C901F
:101A7000B9F17B0F09D1444504DA06EB44008089B3
:101A80007B280BD005F0E4F8E6E7B9F17D0FE3D150
:101A9000444507DA3AF814007D2803D10134DBE726
:101AA000002515E0A81F019DDDF81CA0A4F1010B85
:101AB000A8420BDD441B2046FFF756FA2A46314662
:101AC00023460546FFF702FE049C01E0049C002526
:101AD0001FFA89F07D2818BF05F0BAF8204602F0F9
:101AE00041FF70B12046CDF81CA002F01DFF009907
:101AF000044601F0BFFBC3682046294600229847F0
:101B00000BE03CB16068CDF81CA0C069C1682046FC
:101B1000884702E0CDF81CA000200BF1010100284D
:101B200004910299D1F8A05018BF0546069CE868B8
:101B3000A7EB000A059F37B9BAF1000F03DD204675
:101B4000514604F04FFF2046294604F06EFA002F5C
:101B5000DDE903B73FF48AAEBAF1000F3FF782AE7A
:101B600084E6069809B0BDE8F08F11481149784421
:101B70000C18114901442046FEF7D2FE054603F039
:101B80008FFB20462946FEF7E1FE0C4809497844C0
:101B90000C180B4901442046FEF7C2FE0546FEF72D
:101BA000D0FEEEE75AFFFF17AC9A00E83CFEFFFFBD
:101BB00042FCFF1764EAFFFF7C9C00E822FCFF1751
:101BC000BC7500E870B50446E5682846FFF7CCF917
:101BD000064604F110002A4606F11001FFF700FD49
:101BE000304670BDF0B581B00D460646144656EA43
:101BF000050008BF002C27D018481949002D78444B
:101C00000844D0F8A00008BF0546002EE96808BFC8
:101C10000646002CF26808BF0446E06811440844F8
:101C2000FFF7A2F9002132460746FFF729FDF168C8
:101C300038462A46FFF724FDE868F1682246014449
:101C40003846FFF71DFD05E006480549784408447D
:101C5000D0F8A070384601B0F0BDC046B2FBFF1707
:101C60003CFEFFFF64FBFF1700F1100323F8121086
:101C7000511C002223F81120C160704780B502EB8F
:101C8000010C510000F110034FF0200E03E023F887
:101C900001E0023101326245F9DB002123F8121024
:101CA000C0F80CC080BDF0B581B0CE6805461446C2
:101CB00001F1100005F1100707EB4402114632460E
:101CC000FFF78EFCA019002127F81010E86001B082
:101CD000F0BD70B5DDF810C00446012B04F110060C
:101CE0000CEB03050FDB00291CBF8868002801D11D
:101CF000002001E001F10C0000EB420006EB4C017A
:101D00001A46FFF76DFC002026F81500E56070BD4F
:101D100080B50A46C16800F001F880BD70B506467E
:101D200010460D46FFF720F90446F06848B106F169
:101D3000100004F110012A46FFF752FC2046294604
:101D400001E02046002100F002F8204670BDC1608D
:101D50007047D0E9022101319142BEBF00EB410042
:101D6000002101827047C04680B508480849094AE9
:101D7000784401440244C1F8A020074AD1F8A410D5
:101D800010441922FEF7FAFC80BDC04640FAFF1746
:101D90003CFEFFFF807C00E89C7C00E870B50C46B0
:101DA0000A4905460A480B4A794408441144FEF79B
:101DB000B7FD2946064603F0E3FA304647214FF0C7
:101DC000FF32234603F06AFB70BDC04608FAFF17D6
:101DD00064EAFFFFEC9B00E802688A423CBF4FF0D8
:101DE000FF307047026800208A4288BF0120704798
:101DF000F0B581B004460C480C4F0E4678443918B3
:101E00003046FEF783FE002550B109487844391862
:101E10003046FEF773FF00682168814208BF012544
:101E2000284601B0F0BDC046B4F9FF173C7D00E87C
:101E3000A4F9FF170068704710B50468FEF7B8FFF3
:101E400001462046FFF7AAFF10BD10B50468FEF753
:101E5000AFFF01462046FFF7A1FF10BDB0B50568F2
:101E60000C46FEF7A5FF024628462146FFF728F953
:101E7000B0BD00210160704780B582B000200190A4
:101E800001A8FFF7F6FF019802B080BDB0B50C467F
:101E9000084905460848094A7944084411444FF462
:101EA0008062FFF787FB02462846214600F008F8CB
:101EB000B0BDC04618F9FF1764EAFFFFBC7300E825
:101EC0002DE9F041DFF8E480044639480F46164614
:101ED000F84400EB0805374800EB08012846FEF7F8
:101EE0001FFDE06434484044D0F8C0104A1CC0F8DC
:101EF000C02041F0805040F00D70A0602F48C4E930
:101F0000057600EB080628463146FEF709FD074630
:101F100000F04AF928463146E761FEF701FD064622
:101F200000F042F90820C4E90860254800EB0806E3
:101F300028463146FEF7F4FC2146074600F038F902
:101F400028463146A762FEF7EBFC2146064600F024
:101F50002FF91C48E66200EB08012846FEF7E0FC7A
:101F6000064600F027F91848666300EB080128468A
:101F7000FEF7D6FC064600F049F90220A663206170
:101F8000124800EB08012846FEF7CAFC0546104837
:101F9000214600EB08022846FFF7A1F9D4E9062004
:101FA000294600F097F8BDE8F081C046E0F8FF1739
:101FB00064EAFFFFBC7E00E83CFEFFFF6C7F00E8A8
:101FC000FC7F00E88C8000E81C8100E8AC8100E820
:101FD000DD0A00E8B0B5014691F8240010F0080FC2
:101FE0000AD0486A0D4A20F0080048620A4878443E
:101FF000104400F01BF8B0BD09480A4978440C1899
:10200000094901442046FEF78BFC054600F036F8EE
:1020100020462946FEF79AFCC2F7FF171CEAFFFF8D
:10202000B4F7FF1764EAFFFFCC7D00E870B582B01B
:1020300000260D4604460196E86A00F063FD10F0A4
:10204000FF0F18D0012011F05FFD0096CDE90000D0
:102050002046294600F036FD2046294600F05DFD69
:1020600000F084FD0146204600F0A3FD019811F028
:102070004BFD02B070BD0320FEF732F980B5034975
:10208000034A7944114403F0F2F880BD2EF7FF179C
:10209000FC9E00E80069704701617047B0B582B0EE
:1020A000002504460195A06970B1012011F02CFDB6
:1020B0000095CDE90000A06902F07CFEA561C4E9AD
:1020C0000255019811F020FD02B0B0BD80B5172077
:1020D000FEF706F92DE9F04381B000260C460546CF
:1020E000174600966068C069816920468847804627
:1020F000384603F0ADF86FF00209C5E90209384629
:10210000FEF71AFEAA68C117801A61F100018F2834
:102110004FF0000088BF01200029C8BF012608BF7A
:102120000646002E1FBFA868E168009101641FBF2A
:10213000C0F828804FF080714164C0F800901FBF44
:102140000221416001B0BDE8F0831520FEF7C8F818
:1021500070B5094E09487E44841909488119204602
:10216000FEF7DEFB054607488119284603F05EF8B6
:1021700020462946FEF7EAFB5AF6FF1764EAFFFFFE
:10218000FC9400E8FC9700E880B5112000F0E2FF25
:102190000E20FEF7A5F8806870478160704780B513
:1021A000FFF76AFE80BD704780B505F027FE80BD51
:1021B00001617047F0B581B0044611481149784477
:1021C0000D1811490E1828463146FEF7A9FB0021CB
:1021D000074602F097FD28463146A760FEF7A0FBB0
:1021E0000021054602F08EFDE5602946A06806F054
:1021F000D8FBD4E9021006F0D6FB01B0F0BDC04612
:10220000F2F5FF1764EAFFFF8C9500E8F0B581B0A6
:1022100004461148114978440D1811490E182846F2
:102220003146FEF77DFB0021074602F0EDFD284612
:102230003146A760FEF774FB0021054602F0E4FD7D
:10224000E5602946A06806F0BDFBD4E9021006F05F
:10225000BBFB01B0F0BDC0469AF5FF1764EAFFFF73
:10226000AC9600E870B5016969B18D6801F10C04A4
:102270000026AE42A8BF70BD54F82610D1E9020175
:1022800088470136F5E7D0E902120846904770BD4D
:1022900004466069FFF7E6FF606A064940F0010006
:1022A0006062034878440844214600F005F870470E
:1022B0000CF5FF171CEAFFFF80B500F08DFC132022
:1022C00000F048FF1420FEF70BF8C046034804490D
:1022D00078440844D0F8BC00C0687047E0F4FF17A9
:1022E0003CFEFFFF10B5044604F13C0000F009F885
:1022F00094F8240010F0010F1CBF204600F012F8E3
:1023000010BD70B50446206801302060D4E9025643
:1023100011F098FE6168401A401946F10001C4E9C5
:10232000020170BD10B504460848094978440844C4
:10233000214600F0F2F9606A40F010006062206B04
:1023400000281CBF206B00F0F6F910BD84F4FF17C5
:102350001CEAFFFF80B53C3000F001F880BD10B5ED
:10236000044611F06FFE606010BDC04680B50348A2
:1023700003497844084400F005F880BD3EF4FF1797
:102380001CEAFFFF70B582B00446124812490026CD
:10239000019678440D1800F056FCD5F8BC50002D7D
:1023A000284618BF012090B1012011F0ADFB009626
:1023B000CDE900002046294600F0AFFB2046002171
:1023C00000F0F7FB019811F09FFB02B070BD0420F4
:1023D000FDF786FF1EF4FF173CFEFFFF2DE9F041DD
:1023E00088B0054628488846284978440C1800F0EB
:1023F00053F8D8F81020D4E91F01D2E9066704AADF
:1024000082E8C300DDE90623594050400843A86B29
:1024100005D1414600F06AF808B0BDE8F08100F04F
:1024200048F80546012401E0AD680024284600F084
:1024300043F810F0FF0F16D02869C1698069CDE913
:102440000201CDE90067DDE90201B0424FF0000072
:1024500098BF0120B9424FF0000198BF012108BF89
:1024600001460029E0D14046294600F02AF814F040
:10247000FF0F05D0064807497844084400F02EF8BD
:1024800008B0BDE8F081C046C6F3FF173CFEFFFF71
:1024900038F3FF171CEAFFFF80B511F02BFB00217A
:1024A000022838BF0121002918BF80BD0020FDF798
:1024B00017FF8068806870478068002818BF012077
:1024C00070478268002A1EBFD0E90223D3609A6059
:1024D000CA689060C0E90212C860704780B590F881
:1024E0002010002908BF00F065FC80BD80B5C268DF
:1024F00008461146FFF7E5FF80BDC046B0B584B081
:1025000004460F480F4978440D18FFF7C5FF2046D1
:1025100000F01EF82269D5E91F01D36992698DE8A0
:102520000F00DDE9022359405040084305D006481A
:10253000064978440844FFF7D1FF04B0B0BDC04657
:10254000AAF2FF173CFEFFFF7EF2FF171CEAFFFF17
:10255000816800291EBFD0E90212CA609160002183
:10256000C0E902117047C04610B50446FFF794FF5A
:10257000A06B00F011F800281EBFC169806910BD72
:102580000348044978440844D0F88010C06F10BD57
:102590002CF2FF173CFEFFFFD0E902128868904240
:1025A00014BF0069002070472DE9F04184B01D463A
:1025B00016468046FFF770FFD8F83800FFF779FF1E
:1025C0000746002404E0BF68002100F035F801242C
:1025D0003846FFF771FF10F0FF0F16D03869D0E9C9
:1025E0000612CDE90212CDE90065DDE90212B14221
:1025F0004FF0000198BF0121AA424FF0000298BF9E
:10260000012208BF0A46002ADDD114F0FF0F1CBFCB
:10261000404600F003F804B0BDE8F08180B5014603
:102620000348044A7844104400F014F880BDC046C2
:102630008CF1FF171CEAFFFF80B590F82020002ADC
:1026400018BF80BD80F82110012180F8201002F011
:1026500057FC80BD70B582B00446002601200D46AF
:10266000019611F051FA0096CDE9000095F824008A
:1026700010F0200F11D0284600F0C4F820F02001FF
:10268000284600F0C1F82046294600F046FA00F03E
:102690006DFA0146204600F08CFA01A8006811F09E
:1026A00033FA02B070BD70B582B005460026012035
:1026B0000C46019611F028FA0096CDE90000A168B9
:1026C000686B00F005F8019811F01EFA02B070BDB9
:1026D00080B5C2680846114606F067F980BDB0B5FE
:1026E00082B0044600250120019511F00DFA0095F5
:1026F000CDE90000A06800F005F8019811F004FA97
:1027000002B0B0BD816800291EBFD0E90212CA60C4
:1027100091600021C0E90211704780B582B0D1E913
:102720000FC2D1E911312C30CDE90031614600F002
:1027300075FA02B080BD80B50121017380684168DF
:10274000C969C969884780BDB0B582B00446002513
:102750000120019511F0D8F90095CDE9000002E0C3
:102760000021FFF769FFA06BFFF716FF0028F7D1E4
:1027700003E04168C969C9698847606B00F00DF8DA
:102780000028F6D1E06A00F010F8A06A00F00DF819
:10279000019811F0B9F902B0B0BDD0E90212886811
:1027A000904214BF006900207047816800291EBF55
:1027B000D0E90212CA6091600021C0E9021170479D
:1027C000F0B581B005460C480C4E0C4678443718DD
:1027D000FFF762FED7F8BC00002828601CBF2868FD
:1027E000FFF780FD2046FFF7B5FD054878443044EB
:1027F000C0F8BC4001B0F0BDE4EFFF173CFEFFFFA6
:10280000C4EFFF17406A704741627047C16070476C
:10281000043102220439042938BF704740F8042BE0
:10282000F8E780B5037803F0FE0C0023BCF1040F39
:1028300008BF0123CBB9090241EA822C04E0BFF3AF
:102840005F8F734508BF80BDD0F800E0BFF35F8F96
:102850005FFA8EF141EA0C0150E8003F7345EED17A
:1028600040E80012002AF7D1E9E70720FDF738FD1C
:102870004FF400707047C0462DE9F041154C80467A
:1028800015487C440519154801192846FEF748F8F3
:1028900006461348414602193046FEF720FD11480E
:1028A0004FF4806201192846FEF784FE07460E4861
:1028B00001192846FEF734F831463A460546FFF737
:1028C000FFFA0A48C8F814502044C0F8BC50BDE8CC
:1028D000F081C0462EEFFF1764EAFFFFAC8100E8ED
:1028E0003D1100E8BC7300E83C8200E83CFEFFFFBD
:1028F00080B500F0F5FA0420FDF7F2FC2DE9F04375
:1029000081B0DFF8A090044627488846F94400EBE0
:102910000905264800EB090728463946FEF700F866
:10292000064600F04DF828463946A660FDF7F8FF48
:10293000064600F045F828463946E660FDF7F0FF08
:10294000064600F03DF81A48266100EB09012846CA
:10295000FDF7E6FF06461748214600EB0902304620
:10296000FEF7BDFC144800EB09012846FDF7D8FF2F
:10297000314642460746FFF7A3FA1048A76100EB2D
:1029800009012846FDF7CCFF00210122054600F091
:1029900081F8E5612046A16900F094F801B0BDE836
:1029A000F083C046A4EEFF1764EAFFFFCC8200E884
:1029B000AC8100E8651200E83C8200E89C8300E8F6
:1029C000F0B581B004461148114978440D181149F9
:1029D0000E1828463146FDF7A3FF00210746FFF7F2
:1029E000E7FB28463146A760FDF79AFF0021054620
:1029F000FFF7DEFBE5602946A06805F0CEFFD4E9CD
:102A0000021005F0CCFF01B0F0BDC046E6EDFF17A7
:102A100064EAFFFFFC7F00E880B582B04FF0806081
:102A200000F096F9FF2011F06FF80021019101905C
:102A300011F0D6F8FCE710B50446084601F013FE85
:102A40000246A0680B4603F043FF10BD80B5416805
:102A50000022C9698B694FF0FF31984780BD80B56E
:102A6000BFF35F8F00F10801002251E8000F41E839
:102A70000023002BF9D1BFF35F8F002818BF02F0AD
:102A800053F980BD80B54168C9690A6A0121904740
:102A900080BDC046B0B5044608482173064922618E
:102AA000074A794408441144FDF73AFF2146054698
:102AB00002F07CFAA560B0BD0EEDFF1764EAFFFFDF
:102AC000CC9E00E8B0B50C460546FFF7E5FCA16AD0
:102AD000A86800F010F8B0BD7047B0B50446A5690D
:102AE00028466562FFF736FC6069FFF773FAE8690C
:102AF000FFF74AFBB0BD80B5C2680846114600F03A
:102B0000E1F980BD014600208A68002A18BF70479D
:102B1000C968002908BF0120704770B50C4681695B
:102B20008C4208BF70BDC06800F0A1F90546204680
:102B3000FFF7B0FA064600E0AD68284600F09AF9C3
:102B400010F0FF0F04D02869FFF7A4FAB042F3DABF
:102B5000E06A294600F0B6F92046FFF753FE20F060
:102B600020012046FFF750FE70BDC04680B502F040
:102B7000E6F9002804BF002080BD411E0E2901D9BE
:102B8000082080BD0B20DFE801F0110809090909C0
:102B9000111111110D0F110B0B00F2E70C2080BD6C
:102BA0000A2080BD0D2080BD0E2080BD0E20FDF7C7
:102BB00097FBB0B50D46044600F099F845F00800C3
:102BC000082818BFB0BDD4E9090188421CBF4FF0E6
:102BD000805000F0BDF8B0BD70B582B0044600264C
:102BE00001200D46019610F08FFF0096CDE9000000
:102BF0002846FFF7A9FD606A854206D1FFF7B6FFB8
:102C000001462046FFF7D5FF02E02846FFF78AFB82
:102C100001A8006810F078FF02B070BD84B0059B79
:102C20000393049B8DE80E000168009A1144016033
:102C3000D0E9021CDDE90232C91842EB0C02C0E9FE
:102C4000021204B0704780B510F054FF0021022832
:102C500038BF0121002908BF80BD0120FDF740FBDE
:102C600070B582B000260C4605460196FFF7EBFFD3
:102C7000012010F049FF0096CDE9000094F82000F3
:102C800008B101AE25E024692869E16AFFF733FF46
:102C90002046FFF7B7FD40F020012046FFF7B4FDC6
:102CA0002846FFF71BFCFFF761FF01462846FFF7A8
:102CB00080FF01AE08E0019810F026FF054610F0F5
:102CC000EFFF284610F020FF94F8240010F0200FAA
:102CD000F1D1306810F018FF02B070BD10B5044695
:102CE000616AFFF71AFF204600F001F810BD80B5B9
:102CF00000F03EF880BDB0B50446A56AA0698542E3
:102D000009D0E06800F012F80028014618BF012140
:102D100049B1A84203D1204600F015F8B0BD2046C5
:102D200000F00CF8B0BD0520FDF7DAFAD0E902108A
:102D3000C068884214BF00690020704780B5006CED
:102D400005F052FC80BD80B5006C05F053FC80BDE1
:102D500080B54FF6FF710022C6F2BF11084208BFCE
:102D6000012212B110F022FF80BD0920FDF7B8FA50
:102D7000B0B582B0044600250120019510F0C4FED4
:102D80000095CDE90000E06800F00CF8002808BFCD
:102D9000A069A0622046FFF7AEFF019810F0B4FED4
:102DA00002B0B0BDD0E902128868904214BF006939
:102DB00000207047F0B585B0044619481949784499
:102DC0000844D0E91F65206900F051F8074619E072
:102DD0003869FFF7C9FB01AA049582E84300DDE9E1
:102DE000032382424FF0000288BF01228B424FF042
:102DF000000388BF012308BF1346002B1CBF0D46EC
:102E00000646BF68384600F035F810F0FF0FDFD1F6
:102E1000204632462B4600F033F805B0F0BDC046E0
:102E2000F2E9FF173CFEFFFF2DE9F041804601204B
:102E30001D46164688F82000D8F8100000F017F854
:102E4000074606E03869BC6832462B46FFF7ACFB04
:102E50002746384600F00EF810F0FF0FF2D10020A0
:102E600088F820004046FFF7A5FFBDE8F0818068A4
:102E7000806870478068002818BF01207047C046EE
:102E800010B584B0DFF834C00D49FC446144D1E989
:102E90001FC1CDE90223CDE900C1DDE902E4406CA8
:102EA00061408EEA0C04214303D005F059F804B0C8
:102EB00010BD05F04FF804B010BDC04626E9FF175D
:102EC0003CFEFFFF8268002A1EBFD0E90223D360C8
:102ED0009A60CA689060C0E90212C8607047C04634
:102EE0002DE9F04381B0554A574BDFF854815549DD
:102EF0007A449F1808EB02001144D7F89C2092688E
:102F0000FEF758FB054603260FE0D7F89C0050F863
:102F1000260000F02AFC0121044600F02BFC20468C
:102F200000F044FC45F826400136D7F89C00F11E1D
:102F300080688142E9DB454C454803227C4408EB2C
:102F4000040601193046FEF735FB80464148011959
:102F50003046FDF7E5FC2946074600F09BFB3E485E
:102F6000C8F80C7001193046FDF7DAFC294607460F
:102F700000F0B0FB3948C8F8107001193046FDF771
:102F8000CFFC2946074600F0C8FB3548C8F8147046
:102F9000071930463946FDF7C3FC054600F0C1FB72
:102FA00030463946FDF7BCFC814600F0BAFB2846A6
:102FB00000F0BBFB484600F0B8FB00260FE008EB32
:102FC0008600C468284600F0BCFB4FF07D5118F025
:102FD00089FD01466068C06982692046904728469D
:102FE00000F0AFFB4FF07D51074618F065FE044638
:102FF00038464FF07D5118F087FE204304BF284625
:1030000000F0ABFB484600F09CFB4FF081410446CA
:1030100018F052FE074620464FF0814118F074FE2A
:103020003843CCD1D8F80840484600F096FB701CD5
:1030300090FBF4F101FB1406C1E7C046C0E8FF179E
:1030400064EAFFFF2C8B00E83CFEFFFF74E8FF17EB
:10305000BC8B00E84C8C00E8DC8C00E86C8D00E850
:10306000FC8D00E8B0B504460A480B4D784428446E
:10307000406AA04208BFB0BDFFF734F90748784462
:10308000054420466C62FFF765F92846FFF733FEDA
:10309000B0BDC04644E7FF171CEAFFFF32E7FF1749
:1030A00080B5012010F030FD002010F08FFD00F001
:1030B00011F86FF00C0000F017F86FF00A0000F044
:1030C00013F86FF00B0000F00FF86FF0090000F03C
:1030D0000BF880BD80B510F049FD40F2192108437E
:1030E00010F04AFD80BDC04680B500210028B8BF61
:1030F0000121002927D010F12A0F01D100200DE075
:1031000000F10E010D291BD80020DFE801F00707B0
:103110000A0F1419191919071F191C1C10F036FD74
:1031200080BD4FF4803010F031FD80BD4FF4003091
:1031300010F02CFD80BD4FF4802010F027FD80BDE5
:103140000920FDF7CDF80920FDF7CAF80E20FDF79C
:10315000C7F8C04670B5C0B21138022804D00128A3
:1031600005D110F045FD70BD10F046FD70BD10B9E1
:1031700010F03AFD70BD094E09487E448419094893
:1031800081192046FDF7CCFB0546074881192846E2
:1031900000F00CF820462946FDF7D8FB36E6FF176D
:1031A00064EAFFFF2C8400E85C8400E880B502F04C
:1031B0005EF880BD80B510F09DFC0021022838BF6C
:1031C0000121084680BD80B54FF0A53010F05AFDB2
:1031D00080BD80B510F06EFC002110F0020F08BF1A
:1031E0000121084680BD80B510F0E4FD00F40040E8
:1031F000C00B80BD80B510F0DDFD00F40070400A0A
:1032000080BDC04680B5074A07480849084B7A4444
:10321000104411441A440123C0F24003FFF7F2FFA7
:1032200080BDC046A2E5FF17AC7300E8BC8500E88E
:103230006C8600E87047C04680B5074A07480849D1
:10324000084B7A44104411441A440123C0F240034D
:10325000FFF7F2FF80BDC0466EE5FF17AC7300E8D4
:10326000BC8500E8EC8700E870470068002818BFBC
:103270000120704740680022D0F820C00CF10C03F8
:1032800001E008330132DCF808008242A4BF0020CC
:10329000704718688842F4D10CEBC200006970478F
:1032A00070B50C4605462046294600F06BF810F034
:1032B000FF0F1CBF012070BD287E10F0800F1CBFC7
:1032C000207E10F0800F47D0287EC62801D1012033
:1032D00004E0297E0020C72908BF01202549264A8D
:1032E0007944114400F062F8207E297E814233D176
:1032F0002248234978440E182869314600F03AF9EB
:1033000005462069314600F035F9044668682146D3
:10331000C069026B2846904710F0FF0F1CD0686808
:10332000C069C169284688474168C969096A8847F0
:1033300005466068C069C169204688474168C96917
:10334000096A8847816AAA6A8A4204BF012070BD5F
:10335000087E10F0200F01D0002070BD107E4328A1
:1033600004D10846114600F025F970BD1046FFF75C
:1033700097FF70BDD0E4FF176C8900E8BCE4FF172D
:103380006C8A00E870B505690C46002600E06D6A9D
:1033900028460021FDF7AEFF10F0FF0F03D1A86A09
:1033A0008442F4D10126304670BDC046B0B50C460B
:1033B00010F0FF0F18BFB0BD08480949002278443B
:1033C0000D18084901442846FEF7F4F80146204646
:1033D00003F026FE01462846FDF7B8FAF2E3FF1790
:1033E00064EAFFFF2CA000E82DE9F04F81B0904681
:1033F00099468A46074618F0FF0F1AD07868C069C8
:10340000816A3846884710F0FF0F03D04D484E4977
:1034100078440AE07868C069416A3846884710F005
:10342000FF0F06D04548464978440144504602F013
:10343000FCFD19F0FF0F04D0384604F0E7F901460F
:1034400000E0002131BBF8690021FDF753FF10F0C7
:10345000FF0F0ED1F86900224B464168C969CE6A58
:103460005146B04739483A4978440144504602F041
:10347000DCFDB86968B1B869C06850B1B969504637
:1034800002F0D3FD3348324978440144504602F0FB
:10349000CCFD7969504602F0C8FD386A002849D051
:1034A0002D482E4978440144504602F0BEFD386A4A
:1034B0008668B068E0B12E482A4906F10C05002460
:1034C000784401EB000B09E055F8240042464B46D6
:1034D0004168C969CF6A5146B8470134B06884422F
:1034E00021DA002CF0D05046594602F09EFDEBE761
:1034F000386AC668BEB11A481A4906F10C0700249A
:1035000078440D1805E057F8081B504602F08DFD71
:103510000134B068844206DA002CF4D050462946C3
:1035200002F083FDEFE7104810497844014450460B
:1035300002F07BFD01B0BDE8F08FC04688E3FF17C5
:10354000ACA700E8A0E3FF17DCAF00E848E3FF17F3
:103550006CA300E828E3FF170CE3FF176CA700E853
:10356000B0E2FF178CA300E886E2FF178CA700E803
:10357000F0E2FF17B0B5002808BFB0BDFDF754FD5D
:1035800000B1B0BD0748084978440C180749014408
:103590002046FDF7C5F9054601F0C2F92046294647
:1035A000FDF7D4F928E2FF1764EAFFFF2C9300E847
:1035B00000207047006A826800EBC200013A0430C4
:1035C000002ABCBF0020704750F80839013A8B42EE
:1035D00004BF01207047F3E7B0B50A4904460A4822
:1035E0000A4A794408441144FDF79AF9054600F067
:1035F0000FF82169284600F011F82846FEF7DCF89C
:10360000B0BDC046CEE1FF1764EAFFFF5C7C00E876
:1036100080B51021FEF7F0F880BDC04670B5094EA8
:103620000C4605460848094901227E44304431448D
:10363000FDF7C0FF02460648D46081192846FEF710
:10364000EBF870BD86E1FF1764EAFFFF2CA000E8ED
:103650009C8A00E8F0B581B000270C46054600269C
:10366000C3F6E077284604F089FB8642A4BF01B088
:10367000F0BD204617F0EEFC00223B4617F0B0FFED
:10368000024628463146002A18BF012204F079FB81
:103690000136E7E780B504F06FFB80BD70B50C46DE
:1036A00005460026284604F069FB8642A8BF70BD87
:1036B00020464FF0814118F061F918F03BFB86423B
:1036C0004FF000022846314608BF012204F059FBA2
:1036D0000136E7E780B504F04FFB80BDF0B581B05F
:1036E0000C4605460026284604F048FB8642A4BF47
:1036F00001B0F0BD2046214618F038F806F0010769
:1037000018F018FB87424FF000022846314608BFE8
:10371000012204F036FB0136E5E780B504F02CFB0E
:1037200080BD80B500F019F880BD10B50446207A40
:10373000002818BF10BD204600F00FF801202072AD
:1037400010BD80B504F048FB18F0C4F842F2004107
:10375000C4F6741118F0C6F980BD10B5044612F015
:10376000C1FD0021C4E9030110BD80B504F052FA87
:1037700080BDC046B0B50C46054604F0C5FA2C61C4
:10378000E868012818BFB0BD06480749AD6878440D
:1037900001442846FFF76EFDC2682846214690473F
:1037A000B0BDC04622E0FF17FCB100E82DE9F041B2
:1037B000044604F0A9FAE068012808BFBDE8F081DA
:1037C0000E480F49A66878440D1830462946FFF781
:1037D00051FD0269304601214FF001089047A6686B
:1037E000276929463046FFF745FDC268304639460D
:1037F0009047C4F80C80BDE8F081C046EADFFF17AF
:10380000FCB100E804480549784408448121D0F817
:103810009C00C1607047C046A8DFFF173CFEFFFF59
:1038200080B50D480D497844084400F06BF810F05D
:1038300023FAFEF731FE6FF00400052100F07CF85A
:103840004FF0FF30072100F077F86FF001000E21F4
:1038500000F072F880BDC0468ADFFF17A47300E84D
:1038600010B50548054978440C18204600F068F862
:10387000204600F082F810BD4ADFFF177CEAFFFF08
:103880000248034978440844C06D70472CDFFF1795
:103890003CFEFFFF70B5084E044608487E4485197B
:1038A000284600F06EF80648304400F06EF82846CE
:1038B000214600F06EF870BD14DFFF171CEAFFFF11
:1038C00064EAFFFF80B5034803497844084400F0E8
:1038D00064F880BDE6DEFF1798EAFFFF80B5034875
:1038E00003497844084400F05FF880BDCEDEFF173E
:1038F0001CEAFFFF10B50446062010F005F920462B
:10390000FFF7EBF880B501F043FBFFF762FC10F026
:10391000FF0F03D0002010F069FB80BD044805496B
:103920007844084400F07AFE1020FCF7D9FCC04629
:1039300090DEFF173CBB00E880B510F063FB80BD54
:1039400010B582B0044600F0B5FD4FF44030019050
:1039500001A804F01FFA58B160614FF4286301997F
:1039600042182046A261616900F0ADFD02B010BDB1
:1039700004F02CFA1020FCF7B3FC80B500F0C9FD70
:1039800080BD80B5FEF778FF80BD80B500F0F5FE04
:1039900080BD80B500F0E7FE80BD80B504F030FA50
:1039A00004F034FA80BDC04670B5044604F05EFAF7
:1039B0000A4E0B480B497E4430443144FCF7B0FFBB
:1039C00005460948214682192846FDF788FC284605
:1039D00004F09CFA606404F0AFFA70BDFADDFF17E2
:1039E00064EAFFFF1CB400E8416700E82DE9F04FEE
:1039F00081B0364F0546364800240DF103018DF89D
:103A000003408DF803407F4400EB070ADAF878B0F2
:103A1000584600F063F8DFF8BC8005F10C0608EBAF
:103A2000070900E00134A868844219DA56F8240036
:103A3000B0F1FF3FF6D056F82410484600F088F861
:103A40000746DAF87400394600F092F810F0FF0FDC
:103A500008D1DAF874003946012200F085F8E1E770
:103A60004FF0FF34012C25DB1B481949002778440F
:103A700008EB00090D1800E00137A7420FDA56F8ED
:103A80002700B0F1FF3FF7D056F82710484600F066
:103A90005FF80146686F002200F066F8ECE79DF8D9
:103AA000030000281CBF584600F04CF8002001B06D
:103AB000BDE8F08F9DF8030000281CBF584600F0B9
:103AC00041F8012001B0BDE8F08FC046AADDFF1724
:103AD0003CFEFFFF6CEAFFFF42DDFF17B0B50C466E
:103AE00030B1217889B902F0EDFE01202070B0BD1F
:103AF0001248104978440C18114901442046FCF73B
:103B00000FFF0546FCF71DFF0DE00020094920705E
:103B1000074878440C18084901442046FCF700FF88
:103B2000054601F09CFB20462946FCF70FFFC046E6
:103B30009EDCFF1764EAFFFF2C8400E8BCDCFF1763
:103B4000BC7500E880B500F0A2FA01F08BF880BDEA
:103B500080B50348034A7844104404F04AFC80BD11
:103B60005ADCFF17B0EAFFFF80B503F01BFA80BDF7
:103B700080B503F0EBF980BD2DE9F04782B01E4F10
:103B800082461E4800240DF107018DF807408DF88C
:103B900007407F44C619D6F878804046FFF79EFF5D
:103BA00017480AF10C0500EB070900E00134DAF8C8
:103BB0000800844216DA55F82410B1F1FF3FF5D021
:103BC0004846FFF7C5FF0746706F3946FFF7D0FF3D
:103BD00010F0FF0FEAD0706F39460022FFF7C4FFE4
:103BE0000134E4E79DF8070000281CBF4046FFF7BA
:103BF000A9FF02B0BDE8F0871EDCFF173CFEFFFF07
:103C00006CEAFFFF70B50B4D0B487D4444190B481F
:103C100041192046FCF784FE09494E19B06709484E
:103C200041192046FCF77CFE044600F00DF874674D
:103C300070BDC046A6DBFF1764EAFFFF8C8E00E86C
:103C40003CFEFFFF1C8F00E880B503F05BF980BDF0
:103C5000F0B581B0134F04461348144900268DF87F
:103C600003607F443844394400F0FCFA214605469D
:103C700001F042FA0E480DF103018DF8036007448C
:103C8000BC6E2046FFF72AFFA968B86E01F04EFA15
:103C90009DF8030000281CBF2046FFF753FF01B02A
:103CA000F0BDC0464EDBFF1764EAFFFFCC9700E88B
:103CB0003CFEFFFF70B582B01549164A054600204C
:103CC0008DF807008DF80700794456180DF10701AB
:103CD000B46E2046FFF702FFB06E01F02EFA0646E2
:103CE00000E0B668304601F02BFA10F0FF0F05D067
:103CF0003069C168A942F4D1012101749DF807001F
:103D000000281CBF2046FFF71DFF02B070BDC04653
:103D1000E8DAFF173CFEFFFFF0B581B0114E124804
:103D20007E448419114881192046FCF7F9FD0546A7
:103D300000F024F80E4887190E48BD668119204608
:103D4000FCF7EEFD054600F045F80B48FD668119CD
:103D50002046FCF7E5FD0121044600F041F83C67F0
:103D600001B0F0BD90DAFF1764EAFFFFAC8F00E806
:103D70003CFEFFFF7C9000E84C9100E8F0B581B07C
:103D800004461148114978440D1811490E18284667
:103D90003146FCF7C5FD0021074601F0C5F928466C
:103DA0003146A760FCF7BCFD0021054601F0BCF9D7
:103DB000E5602946A06804F009FED4E9021004F089
:103DC00007FE01B0F0BDC0462ADAFF1764EAFFFF24
:103DD0003C9700E880B500210022FEF75BFE80BD25
:103DE00080B50122FEF756FE80BDC0460248034A58
:103DF000784410440166FEE7C0D9FF173CFEFFFF80
:103E0000704770470248034978440844406E704741
:103E1000A8D9FF173CFEFFFF4FF480407047C04613
:103E200080B50749074879440144896821B10649AA
:103E300079440844806880BD00F02AFA80BDC046FD
:103E40008AD9FF173CEBFFFF80D9FF17F0B583B08D
:103E50000D460027044602972DB92AE002980FF07C
:103E600053FEFEF783FA012001970FF04DFE0197F4
:103E7000CDE90100A068A0B1A068A84213D0A06855
:103E8000FEF708F906462846FEF704F98642E5DA09
:103E9000A6682846FEF7FEF801463046FEF7FCF815
:103EA000DCE7A56002E0E0680130E06002980FF016
:103EB0002BFE03B0F0BDC046B0B5002908BFB0BDB1
:103EC00082688A4209D1C1680129A1BFC16801394C
:103ED000C160B0BD00218160B0BD08480849784488
:103EE0000C18084901442046FCF71AFD054600F06D
:103EF000EDFD20462946FCF729FDC046D2D8FF1724
:103F000064EAFFFFFC9400E8F0B583B004460020AB
:103F10000290CDE90000FFF783FF05464B484C496E
:103F20000226009578440844D0F8BC00019000288F
:103F30004FF002001CBF0198FEF7ACF80290284633
:103F40000199FFF783FF206800F44070B6EB102F53
:103F500006D12468DDE90001FFF7AEFFA70A60E0A3
:103F6000207800F0FE00042824D13A493A487944E8
:103F70000144C968F1B139494FF0FF377944084429
:103F80000021C06800E001318268914214DA00EB40
:103F900081020023D2680C3200E001331F2B05DCC4
:103FA00052F82360B568A542F7D13769B7F1FF3FF2
:103FB000E9DD01E04FF0FF37002F13DA01E000F0F8
:103FC000D7F800F0B1F80546002DF8D02448224972
:103FD000784408444269511C41612846214600F05A
:103FE00019F92F692068002600F44070B6EB102FF5
:103FF00007D0000A012823D12068810A384600F042
:104000007DF8207800F0FE00042808BF012626B9BC
:10401000204602213A46FEF704FCDDE90001FFF7E5
:104020004BFF019848B10198FEF734F80299884295
:1040300003D001980299FEF72FF8384603B0F0BD7F
:1040400002284FF00700FCF74BF9C0468CD8FF1749
:104050003CFEFFFF42D8FF173CEBFFFF34D8FF17B1
:10406000E0D7FF170749084A79441144421100F08C
:104070001F00C96801EB8201C96801EB8000C068BC
:104080004069704748D7FF173CEBFFFF704710B5FA
:104090000028014618BF0121B9B10028014618BF08
:1040A000012191B10168022201F44071B2EB112F9C
:1040B00002D10068800A01E0FFF726FF00F008F84F
:1040C0000446FFF7E3FF204610BD0720FCF708F980
:1040D00080B50849084A79441144421100F01F0094
:1040E000C96801EB8201C96801EB8000C06800F07B
:1040F00096F880BDDAD6FF173CEBFFFF80B5084A83
:10410000084B7A441A44431100F01F00D26802EBB6
:104110008302D26802EB8000C06800F07EF880BDA8
:10412000AED6FF173CEBFFFF0F481049784401441F
:104130000869002804BF00207047D0F80CC0BFF306
:104140005F8F51E8042F824203D141E804C3002B62
:10415000F7D1BFF35F8F8242EAD1C1690131C161FA
:104160000021C1607047C04684D6FF173CEBFFFFBB
:104170002DE9F04F81B01F481F4978440844C068BA
:1041800028B11E4878440844C068846800E00024D0
:104190001B4D1C4820227D4400EB050A1A4841199A
:1041A0005046FDF707FA8046194864014FF00009B0
:1041B00008F10C0B46190DE05046314604EB090797
:1041C00000F050F83946054600F05DF84BF82950EC
:1041D00009F10109B9F11F0FEEDD0C4806497844D9
:1041E0000C184146E06800F025F8E06001B0BDE839
:1041F000F08FC04636D6FF173CEBFFFF2CD6FF17DB
:104200001AD6FF1764EAFFFFDC9100E8D2D5FF174A
:104210006C9200E88160426170474161704780B5EF
:1042200050F8181F00291CBF006880BD00F072F80C
:1042300080BDC04610B50C4618B1214602F008FFFB
:1042400010BD05490548064A794408441144012235
:10425000FDF7B0F9C46010BD68D5FF1764EAFFFF31
:104260008CA600E870B50C46204600F001FC05461F
:1042700000F004FC2946064612F06BFA0A20C6E953
:104280000004304670BD80B5016100F01FF880BDAC
:1042900080B500F0C9FB0A4A0A49BFF35F8F7A4430
:1042A0000A4452E8023F1BB942E80203002BF8D14E
:1042B0000548BFF35F8F78440844806880BDC046DE
:1042C00012D5FF173CEBFFFFFAD4FF170021104A6D
:1042D00081608161016A013101620C4979441144B4
:1042E00004E0BFF35F8F634508BF7047D1F810C08B
:1042F000C0F80CC0BFF35F8F51E8043F6345F0D1B5
:1043000041E80402002AF7D1EBE7C046D4D4FF17F6
:104310003CEBFFFF10B5044600F096FBBFF35F8F48
:1043200054E8001F19B944E800010029F8D1BFF38F
:104330005F8F206810BD0C30704780B550F8041CAA
:1043400001440830091A12F004FA80BD80B550F813
:10435000041CDD2201440830091A12F01CFA80BD49
:1043600070B5034653F8040C00F10C06B24214D8A1
:10437000B61AA3F10C04851A152E15D20846194653
:1043800000F01EF820461421DD2212F004FA7EB15E
:1043900020463146FEF73CFA0AE0074807497844D0
:1043A0000844D0F8C40070BD20462946FCF7C9FC7B
:1043B00060190C3070BDC04612D4FF173CFEFFFFE1
:1043C000D1E9003C002B18BFC3F804C0BCF1000FBA
:1043D00018BFCCF800304269914208BF436182693E
:1043E000914208BFC0F818C07047C04680B582B07F
:1043F000094A0A4B0C397A441A4408230192C0E94D
:10440000003281601146FFF7B5F800210160FFF727
:1044100092FF02B080BDC046BAD3FF179C9200E85D
:1044200010B50446E16804F11C00091AFFF7DEFF2D
:104430000021C4E90500C0E9001110BD10B54469B0
:10444000002C08BF10BD2046FFF777FF2468F7E770
:1044500010B54469002C08BF10BD2046FFF776FF59
:104460002468F7E72DE9F04105461148DFF83C8064
:104470000C466E69784408EB00070BE0304629468D
:104480002246FFF76DFFD7F8C410884218BFBDE879
:10449000F0813668002EF1D1034878444044D0F8CA
:1044A000C400BDE8F081C04616D3FF173CFEFFFFF5
:1044B0003CD3FF1780B500F001F880BD0021C0E9B2
:1044C00002110161704780B5531A302B38BF80BD8F
:1044D00000230B60C368C1E90131CA604FF4286250
:1044E0000A618268002A08BF8160C268002A1CBF76
:1044F000C2681160C1600846FFF792FF80BD10B529
:104500008468002C08BF10BD2046FFF797FF246881
:10451000F7E710B58468002C08BF10BD2046FFF7F0
:1045200097FF2468F7E7C0462DE9F04383B0814642
:1045300000202D4CDFF8B4800E460290CDE900003B
:104540002848784421184044D0F8BC0000910190DC
:1045500018B10198FDF79EFD00E00220029024486A
:10456000019978442044FFF771FCD9F8100050B14C
:104570003146FFF777FF04461E4878444044D0F8A0
:10458000C400844219D11D48D9F80870784408EB5A
:10459000000500E03F685FB138463146FFF762FF33
:1045A0000446D5F8C4008442F4D0C9F8107004E081
:1045B000114878444044D0F8C44000980199FFF76E
:1045C0007BFC019848B10198FDF764FD029988428F
:1045D00003D001980299FDF75FFD204603B0BDE8C6
:1045E000F083C0466ED2FF1754EBFFFF3CFEFFFF87
:1045F0004ED2FF1736D2FF17FED1FF1724D2FF1776
:1046000080B50448044A78441044016608460FF017
:1046100039FB80BDAAD1FF173CFEFFFF80B50146E4
:104620000348044A7844104400F006F880BDC046B0
:104630008CD1FF179C7300E880B5CA68002918BFA9
:104640001031084611460FF055FB80BD80B5CB6890
:10465000002918BF1031084619460FF071FB80BDC4
:10466000C0E90023704780B582B000F00CF8024624
:1046700000200B46CDE900006846FFF7F1FFDDE9B9
:10468000000102B080BD10B50028BEBF4FF0FF3062
:104690004FF0FF3110BD4FF47A7100FB01F400F0D0
:1046A00013F8001941F1000110BD80B582B0024637
:1046B00000200B46CDE900006846FFF7D1FFDDE999
:1046C000000102B080BDC04680B50348034978446C
:1046D000084400F005F880BDE2D0FF170CEBFFFFA7
:1046E00070B582B004460025012001950FF00CFA48
:1046F0000095CDE90000D4E903560FF0A3FC014674
:10470000204603F0A7FC044601980FF0FDF9281994
:1047100046F1000102B070BDB0B584B0002402A81B
:1047200000220023CDE90244FFF79AFF0B480C4911
:104730004FF0FF324FF0FF3378440D18DDE90201EE
:10474000C5E921016846CDE90044FFF789FFDDE9AD
:104750000001C5E91F0104B0B0BDC04678D0FF1705
:104760003CFEFFFF704780B5FEF7C8F880BDC06B08
:10477000704780B51120FBF7B3FD80B5FFF7CCFF84
:10478000FFF740F8FFF73EFA00F00EF8FFF7C4FA23
:1047900000F03AF800F084F800F09EF800F0B2F86B
:1047A000FDF7E2FA80BDC046F0B581B0114E124867
:1047B0007E448419114881192046FCF7B1F805465A
:1047C000FDF724FD0E4887190E48C7F8905085194B
:1047D000D7F88C001F28C4BF01B0F0BD2046294681
:1047E000FCF79EF8064600F0C1FA304600F0E2FA07
:1047F000EEE7C04600D0FF1764EAFFFF1C8100E827
:104800003CFEFFFF1C9600E81748184978440A1838
:1048100017490144D1F8B830DA60164A02441A61E7
:10482000154A02445A61154AD1F8B0300244DA60A0
:10483000134A02441A61134A02445A61124AD1F8D7
:10484000AC300244DA60114A02441A61104A024450
:104850005A61104A02449A610F4A0244DA610F4ACF
:104860001044C1F8B4007047A4CFFF17AC9C00E817
:104870003CFEFFFFCC9C00E8EC9C00E80C9D00E8AF
:104880002C9D00E84C9D00E86C9D00E88C9D00E8A4
:10489000AC9D00E8CC9D00E8EC9D00E80C9E00E893
:1048A000B0B5094909480B4A794445180020C5F8B4
:1048B000A800074808441144FCF732F8044602F007
:1048C00055FAC5F8A840B0BD08CFFF173CFEFFFF62
:1048D00064EAFFFFCCA200E810B5064C0648074981
:1048E0007C4420442144FCF71BF805492144C1F8CD
:1048F000C80010BDD0CEFF1764EAFFFFFCB200E88D
:104900003CFEFFFF0448054978440844002180F834
:10491000581041657047C046A8CEFF173CFEFFFF08
:1049200080B500F0A0FC80BDB0B5002808BFB0BDC8
:1049300000F018F800B1B0BD0748084978440C18D9
:10494000074901442046FBF7EBFF0546FFF7E8FF68
:1049500020462946FBF7FAFF74CEFF1764EAFFFFF3
:104960002C9300E810B50446002C04BF002010BDB5
:1049700005480649784401446068FEF71BFEC0B252
:10498000002818BF204610BD3CCEFF17AC9A00E8A7
:1049900080B582B001460020064A01900448784460
:1049A0001044406AFDF732FF1720FBF799FCC04620
:1049B00012CEFF171CEAFFFF80B50449044A794470
:1049C0001144D1F8941002F007FC80BDF2CDFF171E
:1049D0003CFEFFFF2DE9F04381B00D46014600206B
:1049E000914600908F68BFB107F10C004FF0FF3681
:1049F000E846B96801368E4211DA29464A4600F186
:104A00000C0402F007FC00904046FEF72EFC10F06C
:104A1000FF0F2046EDD0009801B0BDE8F0830020E4
:104A200001B0BDE8F083C04680B504490448054A9A
:104A3000794408441144FBF773FF80BD80CDFF1714
:104A400064EAFFFF4C9900E810B506490648074A9A
:104A5000794408441144FBF763FF044600F039F839
:104A6000204610BD60CDFF1764EAFFFFDC9900E827
:104A700080680B3020F003007047C04670B50B4EC5
:104A80000B4D044621467E44A819FFF74DFD094908
:104A90003144D1F8C410884218BF70BD0648214681
:104AA00078442844FFF740FD70BDC0462ACDFF176B
:104AB0007CEAFFFF3CFEFFFF10CDFF17D0E902208C
:104AC00000FB01200B3020F00300704700218160C3
:104AD000704780B500F002F880BDC046F0B581B0E7
:104AE0000C4F04460C487F44C5190C48C119284690
:104AF000FBF716FF2146064600F004F90848A660B9
:104B0000C1192846FBF70CFF0546FDF77FFBE56062
:104B100001B0F0BDCACCFF1764EAFFFF8C9500E836
:104B20001C8100E82DE9F04182B0044600202C49A8
:104B300001902A4878440844D0F8BC80B8F1000FAE
:104B400007D02069404506D16069012701306061C6
:104B50003FE001273DE04046214600F043F806468D
:104B60000025012000950EF0CFFF0095CDE9000053
:104B7000304600F042F8002710F0FF0F11D02069F6
:104B800040B1206940450AD1606901270025013004
:104B9000606106E001250127C4F8108001E00025CE
:104BA000002701980EF0B0FF1DB140462146FDF7E9
:104BB0007AFD4FB9304600F02DF810F0FF0FCFD03E
:104BC000304600F04AF80746002E1CBF3046FDF77D
:104BD00065FA384602B0BDE8F081C0467CCCFF17CC
:104BE0003CFEFFFF80B5D0F84CC04FF0000E0CF13A
:104BF000080787E80F40604680BD8169002904BF2F
:104C000001207047806990F820100020002908BF1B
:104C100001207047B0B582B0002405460194A86910
:104C200030B1A86900F05EF9A86990F8204011E061
:104C300005F108030FCB00F0E9F8A86101200EF0A0
:104C400063FF0094CDE90000A86900F03DF90198E8
:104C50000EF05AFF204602B0B0BD806990F82100E6
:104C60007047C04670B582B00446002021490190CB
:104C70001F4878440844D0F8BC0030B32169814211
:104C800025D160690128A1BF60690138606102B067
:104C9000A8BF70BD2046FDF722FD01200EF034FFB5
:104CA00000260096CDE90000E068FDF775FC0028BD
:104CB0004FF0000518BF0569266101980EF024FF2A
:104CC000002D1CBF2846FDF7A9FC02B070BD0A48A4
:104CD0000A4978440C180A4901442046FBF720FE93
:104CE0000546FFF7F3FE20462946FBF72FFEC04698
:104CF0003ECBFF173CFEFFFFDECAFF1764EAFFFF53
:104D0000FC9400E80161704780B50549054A794483
:104D10001144D1E91F234168C9698969884780BD69
:104D2000A2CAFF173CFEFFFFB0B582B004460025C3
:104D3000012001950EF0E8FE0095CDE9000002E0AB
:104D40000021FDF779FCE068FDF726FC0028F7D18B
:104D500001980EF0D9FE02B0B0BD80B5C068FDF775
:104D6000C5FB80BD80B5FDF7F3FB80BDF0B581B01C
:104D700004460D480D4978440D180D490E18284673
:104D80003146FBF7CDFD2146074600F03DF82846A9
:104D90003146A760FBF7C4FD2146054600F034F814
:104DA000E56001B0F0BDC0463ACAFF1764EAFFFFF4
:104DB000AC9600E810B50446FDF76EFB204600F007
:104DC0009FF80E490E4879440144D1F88C101F29F0
:104DD000C8BF10BD002184F8201084F821100949B3
:104DE00079440844D0F88C100131C0F88C10D0F808
:104DF0009000E168FDF77AFB10BDC046EAC9FF17D5
:104E00003CFEFFFFD0C9FF17016170472DE9F04755
:104E100082B007461E481F4D0024984691468A4698
:104E2000019478442E18FDF70EFFD6F88C00012867
:104E300019DB01200EF068FE0094CDE90000164851
:104E400078442844D0F8900000F030F840B113497D
:104E5000046979442944D1F88C20013AC1F88C20A6
:104E600001980EF051FE54B90D490E480E4A79448E
:104E700008441144FBF754FD0446FFF777FFC4E9EB
:104E8000047AC4E90698204602B0BDE8F087C0461F
:104E90008EC9FF173CFEFFFF70C9FF175EC9FF17E1
:104EA00042C9FF1764EAFFFF1C9600E810B5D0E97D
:104EB00002108C68844202BF0024204610BD2046A8
:104EC000FDF746FB204610BD10B50446FDF7E4FA99
:104ED000E1686069FFF741FFA1682069FDF77EFA8C
:104EE00010BDC04680B501460348044A78441044CA
:104EF000FDF7B6FE80BDC046C4C8FF171CEAFFFF21
:104F000010B50446FDF7C8FAA06800F013F810F0D9
:104F1000FF0F1CBFA068FDF7F1FAE06800F00AF887
:104F200010F0FF0F1CBFE068FFF71CFF0020C4E972
:104F3000040010BD8068002818BF0120704780B5AC
:104F40000EF0C2FD6FF35F2080BDC04670B5044611
:104F50000C480D4D78442E18FDF79EFAD6F8BC008B
:104F6000002818BFFDF7BEF9206800281CBF206884
:104F7000FDF7F0F90548216878442844C0F8BC10D2
:104F800070BDC0465CC8FF173CFEFFFF38C8FF1766
:104F900080B5FEF785F800F001F880BD80B50EF011
:104FA000D5FD20F080400EF0D7FD80BDB0B50C4699
:104FB0000546FFF793FD2C61B0BDC046F0B585B046
:104FC0000446002036491D461646CDE90300334805
:104FD00078440844D0F8BC70002F384618BF012030
:104FE000002857D02069007BC0B101200EF08CFD55
:104FF00000210490019101902069007B58B1206943
:105000000069002802BF20690021017304980EF096
:105010007BFD01243BE004980EF076FD38462146E6
:1050200032462B46FFF7DEFD05460026012002969C
:105030000EF06AFD0296CDE902002846FFF7DDFD7D
:1050400010F0FF0F02D02069007B90B903980EF09A
:105050005BFD2846FFF7DEFD10F0FF0FE6D0284687
:10506000FFF7FBFD002D04461CBF2846FDF716F890
:105070000DE020690069002802BF2069002101734A
:1050800025B12846FDF70AF8012400E00124204656
:1050900005B0F0BD0420FBF723F9C046E0C7FF17B9
:1050A0003CFEFFFF70B582B00026044601960FE07B
:1050B00005690121FDF7C0FA20690069002804BFD5
:1050C0002069067301980EF01FFD2846FDF7A6FA29
:1050D000012000960EF018FD0096CDE90000206931
:1050E000007B20B1E068FDF757FA0028E0D1019875
:1050F0000EF00AFD02B070BD70B50C4607490546BA
:105100000748084A794408441144FBF709FC29463A
:10511000064600F009F8C5E9026470BDACC6FF1789
:1051200064EAFFFF3C9700E80161704780B5C26800
:105130000846114603F04EFC80BD806880687047C9
:105140008068002818BF0120704770477047002012
:105150007047704780B51120FDF7FCFF0E20FBF76C
:10516000BFF880B51720FBF7BBF82DE9F04381B0FD
:1051700000260C460546174600966068C06981699E
:10518000204688478046384600F02DF86FF0020927
:10519000C5E902093846FBF7CFFDAA68C117801A96
:1051A00061F1000147284FF0000088BF012000296D
:1051B000C8BF012608BF0646002E1FBFA868E168C9
:1051C00000914FF080721FBFC0E91012C0F800902C
:1051D000022141601EBFC0F8288001B0BDE8F08305
:1051E0001520FBF77DF880B5FBF7A6FD483820F0C9
:1051F000070080BD70B5094E09487E4484190948EE
:1052000081192046FBF78CFB054607488119284683
:1052100000F00CF820462946FBF798FBB6C5FF17AF
:1052200064EAFFFFFC9400E8FC9700E881607047A7
:10523000806870478160704780B5FCF71DFE80BDB7
:10524000704780B51120FDF785FF0E20FBF748F869
:1052500080B5FBF771FD903820F0070080BD80B568
:1052600000F001F880BD80B5FFF730FC80BD80B54F
:10527000FFF7DCFF80BDC04680B506490648074AF7
:10528000794408441144FBF74BFB03218160FBF791
:105290007DFD80BD30C5FF1764EAFFFF0C9B00E871
:1052A00080B5FFF7E0FF80BD80B5FFF7DCFF80BD74
:1052B00080B50349034A79441144FFF7D8FF80BD04
:1052C000FAC4FF172C9E00E870B50D461949044634
:1052D00019481A4A7944084411443322FCF76AF900
:1052E00060610A20002DA06002DB0020207402E033
:1052F00001206D42207460690A212A46002300269D
:1053000000F01EF80C22C0F10A0102EB4000E1603F
:1053100008E062690139131802EB460233F81630CF
:10532000013693810129F4DA6069002100EB46001F
:10533000818170BDDCC4FF1764EAFFFF4C7400E894
:10534000B0B54CF6CD4CA3F1010ECCF6CC4C0FE031
:10535000A2FB0C4500EB4103AEF1010E0139EC0854
:1053600004EB8405A2EB450242F030025A8122464A
:10537000BEF1FF3FECDC002A04BF0846B0BDE7E702
:1053800070B50D46164904461648174A7944084434
:1053900011443322FCF70EF960610A2000260A212D
:1053A0002A460023A06026746069FFF7C9FF0C221B
:1053B000C0F10A0102EB4000E16008E062690139D6
:1053C000131802EB460233F8163001369381012997
:1053D000F4DA6069002100EB4600818170BDC046AF
:1053E00024C4FF1764EAFFFF4C7400E880B5C2686C
:1053F0009142A4BF002080BDFBF73EFE80B280BD7D
:10540000F0B581B005460C46DDB328460021FFF714
:10541000EDFF80B2A8B3412801DB5B2803DB6128E4
:1054200029DB7A2827DC28460121FFF7DFFF86B237
:105430004FF0FF37302E1ADB3A2E18DA28460221B9
:10544000FFF7D4FFA6F13007032681B230290EDB27
:1054500039290CDC07EB870001EB40003146A0F155
:1054600030072846FFF7C2FF0136092FEDDD4FF662
:10547000FF7108420BD04FF0FF302060002001B0D8
:10548000F0BD4FF0FF302060472001B0F0BD28464E
:1054900000212760FFF7AAFF01B0F0BD2DE9F04F12
:1054A00083B0804689464FF6DF709A46934600EAFD
:1054B0000900A0F1450102290FD0012941D1BBF11A
:1054C000000FB8BFDAF858B0D8F80C0000287EDB1F
:1054D000D8F80C0000EB0B097BE096499648974AF8
:1054E000BBF1010F0AF11407B8BFD8F808B079442E
:1054F000084411448CCFFD68D668DC68FBF710FACD
:105500000746A0190BEB4000284400F1690138461A
:10551000FCF772F94046594600F06CFC98F8100010
:1055200020B1DAF81810384600F07FFD1FFA89F034
:1055300039465A46CDF800A0831E404600F0AEFE24
:10554000E1E0A1BB7F497C487C4A0AF11407794419
:10555000084411448CCFFC68D568DE68FBF7E0F99D
:10556000BBF1000F074606EB0500B8BF4FF0060B76
:105570000BF1010606EB4000204400F169013846BA
:10558000FCF73AF94046314600F034FC98F8100038
:1055900020B1DAF81810384600F047FD4046394689
:1055A00032464B46CDF800A000F0FCFCABE04E28A4
:1055B0003FD1BBF1000FB8BFDAF858B0D8F80C00F3
:1055C000002849DBD8F80C0000EB0B0545E04FF054
:1055D00000095B495848594A794408441144DAE9BA
:1055E0000623DC68D568FBF79BF9074609EB050045
:1055F000204400F169013846FCF7FEF8D8F80C00A9
:1056000000EB0B01404600F0F5FB98F8100020B1CC
:10561000DAF81810384600F008FDDAF81C0000210E
:105620005A460023CDE900014046394600F02AFDE4
:1056300069E050286DD1BBF1000FB8BFDAF874B043
:10564000D8F80C000230C8F80C0000282CDBD8F881
:105650000C0000EB0B0929E000253E493648374A8B
:105660000AF118077944084411448CCFD3F80C9000
:10567000FE68D468FBF754F90746281906FB0500B5
:10568000484400F169013846FCF7B6F8D8F80C0038
:1056900000EB0B01404600F0ADFB404639465A4650
:1056A000534600F035FC2EE04FF00009284922480F
:1056B000224A794408441144DAF81820DAE910370C
:1056C000DAF84840E668FC68D5680296DE68FBF7C1
:1056D00027F90299074609EB050004FB090030444D
:1056E000084400F169013846FCF786F8D8F80C0048
:1056F00000EB0B01404600F07DFB404639465A4620
:10570000534600F0B9FB3846FCF756F803B0BDE845
:10571000F08F0D48084978440C180C490144204684
:10572000FBF7FEF80546FFF7BBFD20462946FBF7D1
:105730000DF9C046C2C2FF1764EAFFFF5C7C00E8B7
:10574000D8C1FF1762C2FF179AC0FF177C9C00E800
:10575000FEC0FF174CC1FF172DE9F04F9BB08346E9
:1057600000200892CDE91900CDE91700CDE9150018
:10577000CDE913008DF84B008DF84A008DF84900F3
:105780008DF84800CDE91000CDE90E00CDE90C0000
:105790001991DBF81400808928B19BF810100029BA
:1057A00018BF012100E002210C91199800F0DAFDE8
:1057B0000CAC0D9001E01A980D90204600F022FEEE
:1057C000204600F02EFE0146204600F03BFEDBF8AE
:1057D0001400808900B3DBF80C0011990844CBF861
:1057E0000C009DF8480008B1109905E0DBF80C00AA
:1057F0001099139A0844811A584600F0FBFADBF816
:105800001400808958B91998022100F0ABFD1A9054
:105810000D998842CFD102E000208BF810000E983D
:105820001399884203DA0E981399081A00E00020B1
:105830000E900F981399884203DD0F981399081A58
:1058400000E000200F909DF8480020B1DDF84C905A
:1058500000200B900DE0DBF80C0013998842D4BFB8
:10586000DDF84C90DBF80C90DBF80C001399401A33
:105870000B900D981A901698D8B3089ACDF818B0D6
:1058800090688568002D7DD0DFF8FC13DFF8FCB34D
:10589000DFF8FC6314467D2279440BEB01003144B0
:1058A000FBF788FE09900B984B464FF000087D22CD
:1058B0000028B8BF0344A0684FF0FF34D0F80CA014
:1058C0000E9898424FEAEA77C8BF0E9BD817059307
:1058D0000A90681E0790DFF8BC0378440BEB0001C8
:1058E000DDF818B03044564603910290CDF818B058
:1058F0000AE04FF0FF300A90002009904FE00DF1D0
:10590000100B09909BE80C08101B53454FF0000149
:1059100098BF01210A9DBD424FF00005D8BF012567
:10592000B7EBE37F08BF0D46B5BBBEB3099901EBEA
:1059300084010134C1F810A00799884506DA089956
:1059400008F10108896801EB8801CE681AEB060AA4
:10595000A0F1010047EBE6770928D6DC520004925B
:10596000DDE90210FBF726FE099A00F10C01002385
:105970000C3204E052F8235041F823500133A34283
:10598000F8DBBCE70020DDF818B016900020099085
:105990004FF0FF300A9002E00A9400E00A94BE49FA
:1059A000BA48BE4A794408441144FAF7B9FF802145
:1059B0000746FBF721FF9BF81000D846DDF820B022
:1059C00030B10D9820B9DBF81810384600F02DFBE7
:1059D0000CAC204600F025FD06464FF0000A4FF6BD
:1059E000FF7006421CBFB5B23B2D00F04681462D2C
:1059F0000BD35C2D15D1204600F013FD01464FF668
:105A0000FF70014241D0384689E0A5F12200052807
:105A10001FD9A5F12C00042832D9452D40F07D80F6
:105A200002E0652D40F06F809DF84800002800F0EE
:105A300079802046002100F0EBFD85B2204601214F
:105A40004FF0010B00F0E4FD302D40F09180002577
:105A50009DE0DFE800F0092362036209DBF84810EB
:105A600057E0384600F0A4FD204600F0DAFC01467D
:105A70004FF6FF7001421CBF88B2A842F1D104E08A
:105A8000DFE800F0034B034B0C00204600F0C9FC9C
:105A90000646A4E7013DA9F101090B950B9D012DD7
:105AA00053DBD8F8140000EB4A00808938B1D8F8ED
:105AB000140000EB4A000AF1010A818900E030215C
:105AC000384600F075FDB9F1010F4FF00000C8BF76
:105AD00001201699002918BF01210142DAD00A9944
